:020000040800F2
:10000000D00800209D0100086F0800088305000843
:100010006D080008A5020008791200080000000021
:10002000000000000000000000000000310C00088B
:100030005503000800000000190B0008ED0C000833
:10004000B7010008B7010008B7010008B7010008B0
:10005000B7010008B7010008B7010008B7010008A0
:10006000B7010008B7010008B7010008B701000890
:10007000B7010008B7010008B7010008B701000880
:10008000B7010008B7010008B7010008B701000870
:10009000B7010008B7010008B7010008B701000860
:1000A000B7010008B7010008B7010008B701000850
:1000B000B7010008B7010008B7010008B701000840
:1000C000B7010008B7010008B7010008B701000830
:1000D000B7010008B7010008B7010008B701000820
:1000E000B7010008B7010008B7010008B701000810
:1000F000B7010008B7010008B7010008B701000800
:10010000B7010008B7010008B7010008B7010008EF
:10011000B7010008B7010008B7010008B7010008DF
:10012000B7010008B7010008B7010008B7010008CF
:10013000B7010008B7010008B7010008B7010008BF
:10014000B7010008B7010008B7010008B7010008AF
:10015000B7010008B7010008B7010008B70100089F
:10016000B7010008B7010008B7010008B70100088F
:10017000B7010008B7010008B7010008B70100087F
:10018000B7010008B7010008DFF80CD000F02EF826
:100190000048004745140008D00800200648804762
:1001A00006480047FEE7FEE7FEE7FEE7FEE7FEE75C
:1001B000FEE7FEE7FEE7FEE7390D000889010008CB
:1001C00030B50B46014600202022012409E021FA27
:1001D00002F59D4205D303FA02F5491B04FA02F524
:1001E0002844151EA2F10102F1DC30BD064C074D7A
:1001F00006E0E06840F0010394E8070098471034F7
:10020000AC42F6D3FFF7C4FF481D0008681D000884
:1002100070B58C1810F8015B15F0070301D110F8C8
:10022000013B2A1106D110F8012B03E010F8016BF5
:1002300001F8016B5B1EF9D12B0705D40023521E78
:100240000DD401F8013BFAE710F8013BCB1A921CE0
:1002500003E013F8015B01F8015B521EF9D5A142DE
:10026000D8D3002070BD00001CB50121402000F053
:1002700055FC8020009001208DF8040000208DF8AE
:10028000060002208DF807008DF80500044C694631
:10029000204600F0BDF88021204600F007F91CBD83
:1002A00000180240FEE700000648016841F0807136
:1002B0000160054800214160016841F001010160D1
:1002C00070470000FCED00E0001000E001484068CD
:1002D00070470000001000E001B50022FFF7E4FFC6
:1002E0000D480E490068B0FBF1F300984343FFF757
:1002F000EDFF0146FFF7EAFF8842FBD003D9A0EBF0
:1003000001010A4403E06FEA010101440A44014685
:100310009A42EFD308BD00000000002040420F00C9
:100320001CB50121042000F0F9FB4FF400500090AF
:1003300001208DF8040000218DF806108DF80700CB
:1003400002208DF805006946014800F061F81CBDE7
:10035000000802407047000070B586B001210846D1
:1003600000F0DCFB0121102000F002FC1E4E0722F1
:100370000A21304600F08AF807220921304600F0B1
:1003800085F800248DF8164001208DF8170002250D
:100390008DF81450410204918DF8155004A930468F
:1003A00000F036F88DF814506802049004A9304625
:1003B00000F02EF84FF4E1300090ADF80440ADF8B5
:1003C0000640ADF80840ADF80C400C20ADF80A002E
:1003D000064C6946204600F0EDFE0121204600F063
:1003E000D5FE06B070BD00000000024000100140C4
:1003F00001B50648009901604FF0E0210A6942F01A
:1004000001020A6101680029FCD108BDC80400206E
:100410002DE9F041002201274FF0030C07FA02F505
:100420000B682B40AB422CD1066853000CFA03F446
:10043000A64306600E79D0F800809E4046EA080682
:1004400006600E79012E01D0022E12D18668A643D5
:1004500086604E79D0F808809E4046EA080686609D
:100460004668AE43466045688E799640B6B23543DD
:100470004560C568A543C560CC799C40C3681C43F2
:10048000C460521C102AC9D3BDE8F08110B54B07D7
:10049000DB0E9A40C90800EB8100016A0F249C40E2
:1004A000A1430162016A1143016210BD418370479B
:1004B0007CB50121084600F031FB4FF4005000905C
:1004C00001208DF8040000248DF806408DF80740C7
:1004D00003258DF805500A4E69463046FFF798FF10
:1004E0004FF4004100918DF804408DF806408DF8DE
:1004F00007408DF8055069463046FFF789FF7CBDFF
:100500000000024030B587B00121042000F014FB48
:100510004FF6FF700590144814490068B0FBF1F0E5
:10052000401EADF810000024ADF81840ADF81240A0
:100530000F4D04A9284600F009FD0821ADF804106C
:10054000ADF806400121ADF80810ADF80A40ADF84D
:100550000C4001A9284600F09DFC0121284600F02E
:1005600082FC07B030BD00000000002040420F00B8
:100570000008004010B5FFF79BFFBDE81040FFF7F3
:10058000C1BFFEE7034600209A8A1B8B1B041A4357
:1005900022F07F42914300D101207047002904D00E
:1005A000018841F0010101807047018821F00101BB
:1005B0000180704710B586B00121480500F0BCFAF3
:1005C0000121022000F0AAFA1B4C04220821204637
:1005D000FFF75CFF042209212046FFF757FF4FF485
:1005E0004071009102218DF805108DF804106946C4
:1005F0002046FFF70DFF114C204600F023F80021A4
:10060000ADF80C104BF6FF71ADF80E100A21ADF8E5
:1006100010102115ADF812100901ADF81410084999
:10062000029102A9204600F071F801212046FFF74F
:10063000B5FF06B010BD00000004024000540040A9
:10064000801A060010B5154988420AD101214C05CF
:10065000204600F07FFA2046BDE81040002100F05F
:1006600079BA0F4988420AD101218C05204600F051
:1006700071FA2046BDE81040002100F06BBA09492C
:1006800088420AD10121CC05204600F063FA2046B9
:10069000BDE81040002100F05DBA10BD00540040DC
:1006A00000580040005C0040002904D0018841F45B
:1006B000807101807047018821F48071018070474A
:1006C000002904D0018841F400710180704701883D
:1006D00021F40071018070470CB5024600200092A1
:1006E0000A0F019221F07F41019A002A03D0009A5B
:1006F0001432009203E0090C009A18320092009A1A
:1007000012680A4200D001200CBD00007FB50446EB
:100710000D46A08820F03F06684600F037FA0298A0
:100720002749B0FBF1F189B20E43A680228822F05E
:1007300001022280234B2A689A4209D85200B0FB5A
:10074000F2F080B2042800D20420491C218423E066
:10075000EB88A3F53F46FF3E0BD002EBC20303EB51
:100760000212B0FBF2F080B240F48040020506D0E5
:1007700007E002EB4202B0FBF2F080B2F6E740F095
:10078000010040F400404FF4967251434FF47A72E6
:10079000B1FBF2F1491C2184A083208840F00100C4
:1007A000208020884FF6F5310840A9886A891143D6
:1007B00001432180A8892989084320817FBD000049
:1007C00040420F00A0860100002A02D041F0010142
:1007D00001E001F0FE0101827047018270470000D4
:1007E0002DE9F04104460E461D4D4FF400373946C1
:1007F0002846FFF771FF0028F9D101212846FFF7AD
:1008000053FF184F28463946FFF7BCFE0028F9D0A1
:10081000002278212846FFF7D7FF134F2846394694
:10082000FFF7B0FE0028F9D021462846FFF7D5FF94
:100830000D4CA41C21462846FFF7A4FE0028F9D041
:1008400031462846FFF7C9FF21462846FFF79AFEA2
:100850000028F9D02846BDE8F0410121FFF730BF5C
:10086000005400400100030082000700FEE77047CB
:10087000002000F021B82DE9F0478246DDF82090F5
:100880000E4690461F460025780711E03146504637
:1008900000F0A2F8544607E028466D1C19F8000045
:1008A00000F0EFFC641CE4B24445F5D3761CF6B2CC
:1008B000BE42EBD3BDE8F08770B50646002505F1D2
:1008C000B000C0B200F0D9FC002000F0D6FC10202F
:1008D00000F0D3FC0024304600F0D3FC641CE4B2EA
:1008E000802CF8D36D1CEDB2082DE8D370BD00004C
:1008F00010B52C48FFF7F0FCAE2000F0BEFC202025
:1009000000F0BBFC102000F0B8FCB02000F0B5FCFB
:10091000C82000F0B2FC002000F0AFFC102000F076
:10092000ACFC402000F0A9FC812000F0A6FCFF20D8
:1009300000F0A3FCA12000F0A0FCA62000F09DFC8C
:10094000A82000F09AFC3F2000F097FCA42000F0C3
:1009500094FCD32000F091FC002000F08EFCD52008
:1009600000F08BFCF02000F088FCD92000F085FC22
:10097000222000F082FCDA2000F07FFC122000F040
:100980007CFCDB2000F079FC202000F076FC8D2040
:1009900000F073FC142000F070FCBDE81040AF20A4
:1009A00000F06BBCA086010010B58D2000F065FC46
:1009B000102000F062FCBDE81040AE2000F05DBCED
:1009C00010B58D2000F059FC142000F056FCBDE855
:1009D0001040AF2000F051BC10B50446B031C8B291
:1009E00000F04BFC102040EA141000F046FC04F02C
:1009F0000F00BDE8104040F0010000F03EBC0000D8
:100A00002DE9F04180460F46002554013946404605
:100A1000FFF7E2FF0C4E305D00F033FC641C6D1CF0
:100A2000EDB2102DF7D37F1CF9B24046FFF7D4FF8B
:100A30000025305D00F025FC641C6D1CEDB2102D0E
:100A4000F7D3BDE8F0810000280000202DE9F04731
:100A500004460F4691460026012B22D0022B24D1BA
:100A6000DFF8ACA04EE0203800F0FF087E2C02D961
:100A700000247F1CFFB239462046FFF7ADFF00255A
:100A8000244908EB480001EB400818F8050000F085
:100A9000F8FB6D1CEDB2062DF7D3A41DE4B2761C55
:100AA000F6B219F806000028DDD1BDE8F08720383D
:100AB00000F0FF08782C02D900247F1CFFB23946D1
:100AC0002046FFF789FF002505EB08101AF8000003
:100AD00000F0D7FB6D1CEDB2082DF5D3781CC1B228
:100AE0002046FFF779FF002505EB08105044007AF7
:100AF00000F0C7FB6D1CEDB2082DF5D30834E4B24D
:100B0000761CF6B219F806000028D0D1CDE7000017
:100B1000581700083015000870470000054A0029E2
:100B200003D011680143116070471168814311605F
:100B30007047000030380240054A002903D0116890
:100B400001431160704711688143116070470000D4
:100B500040380240054A002903D011680143116062
:100B600070471168814311607047000020380240CF
:100B7000054A002903D011680143116070471168CC
:100B800081431160704700004438024070B5244B27
:100B9000196801F00C01234C00291ED0224E0429B3
:100BA0001DD008291DD00460196801F0F001090961
:100BB0001E4A545C0168E14041601C6804F4E05442
:100BC000A40A145D21FA04F484601B6803F46043F2
:100BD0005B0BD25CD140C16070BD0460E4E706608D
:100BE000E2E70F4A121F1168C1F38055116801F046
:100BF0003F0135B1B6FBF1F11468C4F388146143C9
:100C000005E0B4FBF1F11468C4F388146143126881
:100C1000C2F30142521C5200B1FBF2F10160C3E782
:100C2000083802400024F40040787D0114000020C0
:100C3000704700000CB50022019200922749086815
:100C400040F4803008604FF4A043086800F400309E
:100C500000900198401C0190009810B901989842AA
:100C6000F3D10868800302D50120009000E00092D3
:100C70000098012831D119484030026842F0805272
:100C800002601748026842F440420260134808308C
:100C900002680260026842F400420260026842F4A4
:100CA000A0520260021F0F4B13600A6842F080726C
:100CB0000A600A689201FCD50B4A40F20571116086
:100CC000016821F003010160016841F00201016047
:100CD0000168C1F381010229FAD10CBD003802403C
:100CE0000070004019544007003C0240704700006B
:100CF0000E480F490068B0FBF1F0401E4FF0E021B4
:100D0000B0F1807F01D3012008E04861094AF0205A
:100D100010700020886107200861002000B1FEE704
:100D2000086920F001000861704700000000002001
:100D300040420F0023ED00E010B51248016841F475
:100D4000700101601048016841F0010101600E4A24
:100D500000210832116002680C4B1A400260031D2A
:100D60000B4A1A60026822F48022026006480C30A6
:100D70000160FFF75FFF03494FF0006080390860B2
:100D800010BD000088ED00E000380240FFFFF6FED5
:100D90001030002470B5048C24F001040484058B09
:100DA000048C25F0F3054FF6FF7606EA0313134390
:100DB0002B4324F00A020A4342F001010383018419
:100DC00070BD70B5048C24F010040484058B068C6F
:100DD0004FF6FF7404EA011125F4734504EA033366
:100DE0002B4304EA02221A4326F0A0030B4343F0EC
:100DF00010010283018470BDF0B5048C24F480746A
:100E00000484868B058C4FF6FF7707EA012426F0D1
:100E1000F30607EA03111143314325F4206222430C
:100E200042F4807281830284F0BD70B5048C24F496
:100E300080540484858B068C4FF6FF7404EA0131DC
:100E400025F4734504EA02222A4304EA03331343D8
:100E500026F420420A4342F480518383018470BD0A
:100E6000C94301827047002904D0018841F0010183
:100E700001807047018821F0010101807047406BBB
:100E80007047406A704702460020128A0A4200D02A
:100E90000120704770B506460C4625886188A288F7
:100EA0002389002D0CD0042D13D0082D1AD03046E4
:100EB000FFF7BBFFE1883046BDE8704000F039B86D
:100EC0003046FFF767FFE1883046BDE8704000F02C
:100ED00014B83046FFF775FFE1883046BDE8704032
:100EE00000F013B83046FFF787FFE1883046BDE8D1
:100EF000704000F016B841627047028B22F00C027D
:100F00000283028B0A4302837047028B22F4406201
:100F10000283028B4FF6FF7303EA01210A43028327
:100F20007047828B22F00C028283828B0A43828379
:100F30007047828B22F440628283828B4FF6FF736C
:100F400003EA01210A4382837047000030B502881A
:100F5000164C174DA0420DD0A8420BD0B0F1804FD7
:100F600008D0144B984205D0134B984202D0134B33
:100F7000984203D122F070034A881A43104B9842DA
:100F800006D0104B984203D022F440730A891A43CA
:100F900002804A68C2620A880285A04201D0A84243
:100FA00001D1897A01860121818230BD0000014092
:100FB000000401400004004000080040000C004014
:100FC0000010004000140040F0B589B005460E4600
:100FD00001210846FFF7B0FD01210846FFF79EFDFD
:100FE0001B4F012205213846FFF750FA20200790B9
:100FF00002208DF8200003208DF8210000248DF8B8
:1010000022408DF8234007A93846FFF701FA0595DD
:10101000ADF81060ADF81840ADF812407D0304A99A
:101020002846FFF793FFADF80440ADF806400121D4
:10103000ADF80810ADF80A40ADF80C4001A92846FB
:10104000FFF728FF01212846FFF70DFF09B0F0BD8B
:101050000000024070B500F05FF84FF60B644FF0EF
:10106000804509E02846FFF70CFFA04204D9284636
:10107000FFF707FF80B270BD02212846FFF703FF8C
:101080000028EFD02846FFF7FAFE80B270BD0000BE
:1010900070B586B014214FF6FF70FFF795FF00245E
:1010A00042F2107601ADFFF7D5FF25F81400304667
:1010B000FFF79EF9641CE4B20A2CF4D300214C1C07
:1010C000E0B20BE035F8113035F81020934203D927
:1010D00025F8112025F81030401CC0B20A28F1D3A1
:1010E000E1B20929EBD30021022035F81020114488
:1010F000401CC0B20828F8D30620B1FBF0F0054927
:1011000048804888B0F5004F02D3012006B070BD7A
:101110000020FBE7240000202DE9FC472027009752
:1011200001208DF8040003268DF8056000248DF859
:10113000064002258DF80750DFF84C80694640468E
:10114000FFF766F920214046FFF7B0F941F28830F9
:10115000FFF74EF94FF0804903214846FFF780FE24
:1011600000214846FFF7C7FE00978DF804508DF820
:1011700005608DF806408DF8074069464046FFF748
:1011800047F9BDE8FC87000000000240002904D0B8
:10119000818941F4005181817047818921F4005196
:1011A000818170470246002012880A4200D0012047
:1011B000704700007FB504460D46208A20F4405158
:1011C000E88808432082A08941F20C618843A988FD
:1011D0002A8911436A8902431143A181A08A20F41C
:1011E0004071A8890843A0826846FFF7CFFC1E48DB
:1011F000844202D01D48844201D1039800E0029845
:10120000A189090408D500EBC00101EB0010296891
:101210004900B0FBF1F007E000EBC00101EB00106A
:1012200029688900B0FBF1F06422B0FBF2F10901FA
:101230000B096FF018056B4300EB8300A3891D04B5
:101240004FF0320307D503EBC000B0FBF2F000F023
:101250000700084306E003EB0010B0FBF2F000F0DB
:101260000F00084320817FBD0010014000140140A1
:10127000C1F3080181807047FEE701460020FFF7B7
:10128000AFBA01464020FFF7ABBA00000FB4054BE0
:1012900010B503A9044A029800F018F810BC5DF8D4
:1012A00014FB000021140008CC04002002E008C850
:1012B000121F08C1002AFAD170477047002001E0D0
:1012C00001C1121F002AFBD1704700002DE9FF4F1A
:1012D00089B09B460446002506E025280BD05A46D7
:1012E0000B999047641C6D1C20780028F5D10DB037
:1012F0002846BDE8F08F0027B8460122474900E0A4
:10130000074314F8013F203B02FA03F00842F7D1EB
:1013100020782E2819D114F8010F47F004072A2845
:101320000ED06FF02F022078A0F1300109290CD8DF
:1013300008EB880102EB410100EB0108641CF2E7B5
:101340000A98641C50F8048B0A9020780028CED0AC
:10135000642808D0692806D075281ED05A460B99F3
:1013600090476D1C58E00A994FF00A0901C90A918B
:10137000002802DA40422D2102E0390504D52B2154
:101380008DF82010012103E0F90704D02021F7E7B0
:101390008A4608AE0DE00021FAE70A994FF00A09E3
:1013A00001C90A91F7E74946FEF70AFF303106F80E
:1013B000011D0028F7D1ADEB060000F120097807E8
:1013C00001D44FF00108C84502DDA8EB090000E098
:1013D00000208046002706E008A85A46C05D0B9909
:1013E00090476D1C7F1C5745F6DB04E030205A46C1
:1013F0000B9990476D1CB8F10001A8F10108F5DCCC
:1014000005E016F8010B5A460B9990476D1CB9F18F
:101410000001A9F10109F4DC641C65E70928010059
:1014200070B50446064DE1B22846FFF721FF802142
:101430002846FFF7B7FE0028F9D0204670BD00000F
:101440000010014008B5FEF787FFFEF72DFFFFF7FC
:10145000B1F8FFF74DFAFFF74BFCFEF761FFFFF71E
:1014600017FEFEF701FFFFF785F822A0FFF70EFF3A
:10147000254E1625FF20FFF71FFA3046FEF72CFFFA
:101480000020FFF719FA3046FEF726FF002405EB8F
:101490000410C0B222460021FFF7B2FA641CE4B285
:1014A000052CF4D33046FEF717FF012317A20321C2
:1014B0000020FFF7CBFA022319A204210020FFF736
:1014C000C5FA3046FEF708FFFFF7D2F9FFF76CFACE
:1014D0003046FEF701FFFFF773FA1449009100212F
:1014E000082380220846FFF7C6F93046FEF7F4FECF
:1014F000C0E700000D0AD5E2CAC7D2BBB8F6CAB52C
:10150000D1E90D0A0000000080841E0048656C547B
:101510006563204175746F6D6174696F6E000000C2
:1015200048656C6C6F20546563680000C80000203B
:101530000000000000000000002F00000000070075
:10154000070000147F147F1400242A7F2A120062EF
:10155000640813230036495522500000050300009B
:1015600000001C224100000041221C000014083E23
:1015700008140008083E0808000000A060000008E9
:10158000080808080000606000000020100804023D
:10159000003E5149453E0000427F400000426151FB
:1015A0004946002141454B31001814127F10002795
:1015B00045454539003C4A49493000017109050358
:1015C00000364949493600064949291E0000363689
:1015D00000000000563600000008142241000014EC
:1015E00014141414000041221408000201510906C9
:1015F00000324959513E007C1211127C007F49494A
:101600004936003E41414122007F4141221C007F7A
:1016100049494941007F09090901003E4149497A88
:10162000007F0808087F0000417F41000020404102
:101630003F01007F08142241007F40404040007F6E
:10164000020C027F007F0408107F003E4141413EB2
:10165000007F09090906003E4151215E007F0919FA
:1016600029460046494949310001017F0101003FF7
:101670004040403F001F2040201F003F4038403F77
:1016800000631408146300070870080700615149DB
:10169000454300007F41410000552A552A5500006E
:1016A00041417F00000402010204004040404040EC
:1016B000000001020400002054545478007F484484
:1016C000443800384444442000384444487F0038BB
:1016D0005454541800087E0901020018A4A4A47CE4
:1016E000007F080404780000447D400000408084AE
:1016F0007D00007F102844000000417F4000007CF6
:1017000004180478007C0804047800384444443801
:1017100000FC242424180018242418FC007C08044D
:10172000040800485454542000043F444020003C26
:101730004040207C001C2040201C003C4030403CAD
:10174000004428102844001CA0A0A07C004464543D
:101750004C44141414141414000000000000000081
:101760000000000000000000000000F80000000081
:10177000000000333000000000100C06100C0600C2
:10178000000000000000000040C07840C078400029
:10179000043F04043F040400007088FC083000008B
:1017A000001820FF211E0000F008F000E0180000E3
:1017B00000211C031E211E0000F00888700000009C
:1017C0001E2123241927211010160E0000000000EE
:1017D0000000000000000000000000E0180402000B
:1017E000000000071820400000020418E00000007C
:1017F0000040201807000000404080F0804040007A
:101800000202010F01020200000000F000000000CF
:101810000101011F010101000000000000000000A3
:1018200080B0700000000000000000000000000018
:1018300000010101010101010000000000000000A1
:10184000003030000000000000000000806018043C
:10185000006018060100000000E010080810E00019
:10186000000F102020100F00001010F800000000E2
:101870000020203F20200000007008080888700029
:1018800000302824222130000030088888483000A9
:101890000018202020110E000000C02010F80000C9
:1018A00000070424243F240000F808888808080062
:1018B0000019212020110E0000E010888818000077
:1018C000000F112020110E0000380808C838080049
:1018D0000000003F000000000070880808887000C9
:1018E000001C222121221C0000E010080810E0004A
:1018F0000000312222110F00000000C0C0000000D3
:1019000000000030300000000000008000000000F7
:1019100000008060000000000000804020100800EF
:1019200000010204081020004040404040404000B8
:101930000404040404040400000810204080000093
:101940000020100804020100007048080808F00098
:101950000000003036010000C030C828E810E00068
:101960000718272423140B000000C038E0000000F3
:10197000203C23020227382008F88888887000005D
:10198000203F202020110E00C03008080808380031
:10199000071820202010080008F808080810E000A8
:1019A000203F202020100F0008F88888E808100049
:1019B000203F20202320180008F88888E80810001D
:1019C000203F200003000000C03008080838000055
:1019D00007182020221E020008F808000008F80856
:1019E000203F210101213F20000808F808080000DD
:1019F0000020203F2020000000000808F808080010
:101A0000C08080807F00000008F888C02818080087
:101A1000203F20012638200008F8080000000000C0
:101A2000203F20202020300008F8F800F8F80800B7
:101A3000203F003F003F200008F830C00008F808B1
:101A4000203F200007183F00E01008080810E000C1
:101A50000F10202020100F0008F808080808F000D8
:101A6000203F210101010000E01008080810E000FB
:101A70000F18242438504F0008F888888888700090
:101A8000203F2000030C3020007088080808380030
:101A90000038202121221C00180808F80808180026
:101AA0000000203F2000000008F808000008F808A7
:101AB000001F202020201F000878880000C8380858
:101AC000000007380E010000F80800F80008F800D0
:101AD000033C0700073C030008186880806818086A
:101AE00020302C03032C30200838C800C8380800E8
:101AF0000000203F2000000010080808C838080037
:101B00002038262120201800000000FE02020200DA
:101B10000000007F40404000000C30C0000000008A
:101B2000000000010638C00000020202FE000000B2
:101B3000004040407F000000000004020202040058
:101B40000000000000000000000000000000000095
:101B5000808080808080808000020204000000007D
:101B60000000000000000000000080808080000075
:101B70000019242222223F2008F800808000000063
:101B8000003F112020110E00000000808080000026
:101B9000000E112020201100000000808088F80035
:101BA000000E112020103F20000080808080000067
:101BB000001F222222221300008080F088888818CB
:101BC0000020203F202000000000808080808000D6
:101BD000006B94949493600008F80080808000006B
:101BE000203F210000203F20008098980000000046
:101BF0000020203F20200000000000809898000076
:101C000000C08080807F000008F800008080800095
:101C1000203F24022D302000000808F800000000BA
:101C20000020203F20200000808080808080800075
:101C3000203F20003F20003F808000808080000007
:101C4000203F210000203F20000080808080000095
:101C5000001F202020201F008080008080000000C6
:101C600080FFA12020110E000000008080808000F5
:101C7000000E112020A0FF808080800080808000E6
:101C800020203F2120000100000080808080800013
:101C90000033242424241900008080E08080000088
:101CA0000000001F202000008080000000808000D5
:101CB000001F202020103F20808080000080808036
:101CC00000010E30080601008080008000808080C6
:101CD0000F300C030C300F000080800080808000EB
:101CE0000020312E0E312000808080000080808016
:101CF00080818E70180601000080808080808000C6
:101D00000021302C2221300000000000807C0202E3
:101D100000000000003F404000000000FF00000005
:101D200000000000FF0000000002027C80000000B4
:101D30000040403F000000000006010102020404D0
:101D40000000000000000000681D000800000020E6
:101D5000D004000010020008281F0008D004002052
:101D600000040000BC12000811847A030A6809010B
:101D7000020304060708090CA91011200F0202FA39
:101D8000FAAAAAFFFFAAAAFAFA0202100F42727276
:101D90003A7A424B5B5262621377661016203C1C03
:101DA000FFFFB0B424243F3FE4E4242420020203D4
:101DB000FFFF300B01051D59C1FF7F010101500CD0
:101DC000F8F8484C4F4B4A4848F8F84CFFFF44019C
:101DD0001929112C202424381009243010FFFF1059
:101DE000F0F01010081C1F0B0C0D4F6E341C0F234D
:101DF000607F3F180880C060F8FF07023546E0703A
:101E00003C1C08200D7F7F0406033F7F4040407844
:101E100078100A03050911FF118905C312E012F0B9
:101E2000496221073D4428FF11AA44700B83013801
:101E3000448292927401831E7C44C7017D019905FE
:101E400019C1419A01028139FB013C69419949FA62
:101E50000101A12A4001212A6D01212A6001791581
:101E600001642ADB010915072ADA01212AD8012198
:101E70002AC0010915072A800101352A060109181F
:101E8000071CE66620076A86157A861C2A860118D2
:101E90000A80808686068686C0C00C0E1C0606D088
:101EA00030764D2907013113601C12FE1301021018
:101EB00009C41820029E63B20E1DFF8181FFF24407
:101EC00040300F12FF180923EAAABFAAEA033F0B0A
:101ED000012DBC808080080115240E0C082A010108
:101EE0003149041D81808081021901B91706110151
:101EF00001090C0E0A14C0012178081E214040502F
:101F0000215E08012A4DFFFFC1C10409232D881558
:101F100080FCF3EFF3FC80FF80EEEEEEF5FBFF9C20
:081F2000BEB6B6883A000000CD
:040000050800018965
:00000001FF
