:020000040800F2
:10000000700A00209D0100085D120008310F0008F1
:10001000591200088509000895200008000000001A
:10002000000000000000000000000000DD170008D4
:10003000D90B00080000000035150008CD18000895
:10004000B7010008B7010008B7010008B7010008B0
:10005000B7010008B7010008B7010008B7010008A0
:10006000B7010008B7010008B7010008B701000890
:10007000B7010008B7010008B7010008B701000880
:10008000B7010008B7010008B7010008B701000870
:10009000B7010008B7010008B7010008B701000860
:1000A000B7010008B7010008B7010008B701000850
:1000B000B7010008CD1A0008B7010008B701000811
:1000C000B7010008B7010008B7010008B701000830
:1000D000B7010008B7010008B7010008B701000820
:1000E000B7010008B7010008B7010008B701000810
:1000F000B7010008B7010008B7010008B701000800
:10010000B7010008B7010008B7010008B7010008EF
:10011000B7010008B7010008B7010008B7010008DF
:10012000B7010008B7010008B7010008B7010008CF
:10013000B7010008B7010008B7010008B7010008BF
:10014000B7010008B7010008B7010008B7010008AF
:10015000B7010008B7010008B7010008B70100089F
:10016000B7010008B7010008B7010008B70100088F
:10017000B7010008B7010008B7010008B70100087F
:10018000B7010008B7010008DFF80CD000F010FB41
:10019000004800477D2A0008700A00200648804772
:1001A00006480047FEE7FEE7FEE7FEE7FEE7FEE75C
:1001B000FEE7FEE7FEE7FEE74D19000889010008AB
:1001C000F0B480EA0102D40F4200B2EB410F02D238
:1001D0000246084611464A0042D0C30DDDB2C1F3C3
:1001E000C752AD1A202D35DAC1F3160141F40002D1
:1001F00004B15242C5F1200602FA06F12A41104428
:10020000B3EBD05F23D0C4B1012DA0EBC35009DC08
:10021000F0BC4FF0004202EAC352DBB200F500002E
:1002200000F0E0B8400000F1807000EBC350A0F196
:10023000807040EAD170490009E0490841EAC07184
:10024000A0EBC35000F50000400800EBC350F0BC29
:1002500000F0BFB86142012202EB4101001BF6E74A
:10026000F0BC704781F00041AAE780F00040A7E7AA
:1002700030B480EA010202F0004530F0004221F083
:10028000004013D090B1C30DD40DC2F31601C0F3DA
:100290001600E41A41F4000140F400027D3491425A
:1002A00001D3641C00E04900002C02DA30BC0020BD
:1002B00070474FF400000023914201D3891A034391
:1002C00040084FEA4101F7D151B1914202D14FF0BC
:1002D000004105E002D24FF0010101E06FF00101A1
:1002E00003EBC450284430BC00F073B896230022BE
:1002F000114600F077B820F00040C10DC0F31600A1
:1003000040F400007F2901DA00207047962903DCC1
:10031000C1F19601C840704796398840704700F097
:10032000004230F000400AD0C10D01F56071C0F309
:10033000160042EA0151C2084007114370470020ED
:100340000146704730B50B460146002020220124AB
:1003500009E021FA02F59D4205D303FA02F5491B93
:1003600004FA02F52844151EA2F10102F1DC30BDA9
:100370002DE9F05F0546002092469B4688460646DA
:10038000814640241BE0284641464746224600F06D
:1003900030FA53465A46C01A914110D311461846B6
:1003A000224600F017FA2D1A67EB01084F46224645
:1003B0000120002100F00EFA17EB00094E41201E2B
:1003C000A4F10104DFDC484631462A464346BDE835
:1003D000F09F0029A8BF7047401C490008BF20F0CB
:1003E0000100704710B4B0FA80FC00FA0CF050EA3B
:1003F000010404BF10BC704749B1CCF1200421FABC
:1004000004F411FA0CF118BF012121430843A3EBB6
:100410000C01CB1D4FEA00614FEA102042BF0020C3
:1004200010BC704700EBC35010440029A4BF10BC9F
:100430007047401C490008BF20F0010010BC704705
:100440002DE9FE4F804681EA0300C00F0C46009064
:1004500021F0004123F00045B8EB0200A94105D28C
:100460004046214690461C460B46024623F000407B
:10047000104347D0270DC7F30A00C3F30A51029077
:10048000401A019040286BDAC3F3130040F4801B3C
:100490000098924620B10023D2EB030A63EB0B0BCA
:1004A00001985946C0F14002504600F093F90646C3
:1004B0000D4650465946019A00F0ABF910EB080082
:1004C0006141002487EA115284EAE7731A4340D05D
:1004D000009A62B3019A012A4FEA075215DC001B09
:1004E00061EB02014FF0004202EA0752CDE90042FF
:1004F000001C41F5801132462B4600F0ABF903B0E9
:10050000BDE8F08F40462146F9E7001B61EB020190
:10051000001C41F5801300185B412018A2F500175C
:1005200047EB030140EAD570B6196D4111E06D0843
:100530004FEA360645EAC0754FEA0752001B61EBE9
:100540000201001C41F5801149084FEA30000019F2
:10055000514132462B4603B0BDE8F04F00F06BB975
:100560000098012240000023D0EB020263EBE0730D
:10057000009821464FEAE074B8EB000061EB0401FB
:10058000E9E783F000435BE781F0004158E72DE99C
:10059000FE4F81EA030404F0004421F0004100947E
:1005A0004FF0000B23F0004350EA01045ED052EA02
:1005B00003045BD0C3F30A54C1F30A552C44A4F2DC
:1005C000F3340194A0FB0254C1F3130141F48011F0
:1005D000C3F3130343F4801301FB024400FB034EF7
:1005E000840A970A44EA815447EA8357A4FB0768C0
:1005F00002958D0A05FB07854FEA932C04FB0C54EA
:100600002705029D4FEA065847EA1637B5EB08055D
:100610006EEB070C870E920E47EA811742EA8312AF
:10062000A7FB0201B6EB0B0164EB00042B0D43EAC0
:100630000C335E1844EB1C50DA465146E7FB0201CE
:10064000C5F313044FEA0B3343EA14534FEA043261
:10065000019C43EA0603A4F10C040294009CCDE93A
:1006600000B400F0F7F803B0BDE8F08F00200146B9
:10067000F9E72DE9F04D81EA030404F0004B21F085
:10068000004514464FF0000A23F0004150EA0502ED
:1006900020D054EA01021DD0C5F30A570246C5F323
:1006A0001303C1F31300C1F30A5640F4801543F459
:1006B0008013A7EB0608101BD64608F2FD3873EB33
:1006C000050002D308F1010801E092185B41B8F17E
:1006D000000F03DA00200146BDE8F08D00204FF442
:1006E0008011064684460EE0171B73EB050705D301
:1006F000121B63EB050306434CEA010C49084FEA61
:10070000300092185B4150EA0107EDD152EA030034
:1007100012D082EA040083EA0501084305D0101BC9
:10072000AB4106D20122002306E000224FF0004335
:1007300002E06FF0010253101AEB06004CEB085177
:1007400010EB0A0041EB0B01BDE8F04D00F073B86F
:10075000C1F30A52C1F3130140F2FF3341F4801197
:100760009A4202DA00200146704740F233439A422F
:10077000A2F2334202DC524200F03BB800F02AB849
:1007800030B5041E71F1000404DB4FF00044404218
:1007900064EB0101141E73F1000405DB1C464FF0ED
:1007A0000043524263EB0403994208BF904230BDBC
:1007B000064C074D06E0E06840F0010394E80700AE
:1007C00098471034AC42F6D3FFF7E2FC183B000820
:1007D000383B0008202A04DB203A00FA02F100200E
:1007E00070479140C2F1200320FA03F3194390406F
:1007F0007047202A04DB203A21FA02F000217047DA
:1008000021FA02F3D040C2F1200291400843194678
:100810007047202A06DBCB17203A41FA02F043EA60
:10082000E07306E041FA02F3D040C2F120029140A9
:1008300008431946704710B5141E73F1000408DA16
:10084000401C41F1000192185B411A4301D120F094
:10085000010010BD2DE9F04D92469B4611B1B1FA51
:1008600081F202E0B0FA80F220329046FFF7B2FF48
:1008700004460F4640EA0A0041EA0B0153465A4635
:10088000084313D0114653EA010019D0C8F14002C1
:100890005046FFF7AEFF05460E46504659464246C3
:1008A000FFF798FF084305D0012004E020463946B1
:1008B000BDE8F08D0020054346EAE0762C4337433F
:1008C0000A986305E40AA0EB08000022FD0A44EA46
:1008D00047540A3002D500200146E9E70105101906
:1008E0006941DDE9084500196941BDE8F04DA2E71D
:1008F00070B58C1810F8015B15F0070301D110F8E2
:10090000013B2A1106D110F8012B03E010F8016B0E
:1009100001F8016B5B1EF9D12B0705D40023521E91
:100920000DD401F8013BFAE710F8013BCB1A921CF9
:1009300003E013F8015B01F8015B521EF9D5A142F7
:10094000D8D3002070BD00001CB50121402000F06C
:10095000F3FD8020009001208DF8040000208DF828
:10096000060002208DF807008DF80500694604484E
:1009700000F094F98021024800F004FA1CBD000048
:100980000018024000BFFEE70748006840F0807092
:10099000054908600020054948600846006840F0A5
:1009A0000100086070470000FCED00E0001000E06E
:1009B0000148406870470000001000E031B5002495
:1009C000FFF7E2FF104800681049B0FBF1F0009912
:1009D00000FB01F500BFFFF7EBFF034611E0FFF757
:1009E000E7FF02469A420CD09A4202D9D01A044438
:1009F00003E0C3F1FF30104404441346AC4200D37B
:100A000000E0ECE700BF38BD0000002040420F00CE
:100A10001CB50121042000F08FFD4FF40050009020
:100A200001208DF8040000208DF8060001208DF8CB
:100A3000070002208DF805006946024800F02EF9F3
:100A40001CBD0000000802401CB54FF4005000908F
:100A500000208DF804008DF8070002208DF80500B5
:100A60006946024800F01AF91CBD00000008024067
:100A70001CB54FF40050009001208DF804000020B8
:100A80008DF8060001208DF8070002208DF8050082
:100A90006946024800F002F91CBD0000000802404F
:100AA0001FB50121022000F057FD0420029040F202
:100AB0004730ADF804004FF48070ADF80C00002012
:100AC000ADF8060001A90D4801F0D6F80122114643
:100AD0000A4801F099F81D208DF8000000208DF8DB
:100AE00001008DF8020001208DF80300684600F037
:100AF000B7FB0121014801F024F81FBD00040040AC
:100B0000F8B51D4800F0FEFD01280AD11A48C0784A
:100B10000090194883784278017818A001F0CAFA49
:100B200002E025A001F0C6FA13494878FFF7DEFB82
:100B300006462649FFF79CFB04460F490878FFF755
:100B4000D5FB05462146FFF73BFB214908600A49D2
:100B5000C878FFF7CBFB06461C49FFF789FB044624
:100B600005498878FFF7C2FB05462146FFF728FBB9
:100B700018490860F8BD0000410000200D0AB6C108
:100B8000C8A14448543131B3C9B9A6210D0A0D0A90
:100B9000CAAAB6C8CEAA25642E256420A3A55248A9
:100BA00020A3ACCEC2B6C8CEAA2025642E2564A14F
:100BB000E6200D0A0000000052656164204448549C
:100BC0003131204552524F52210D0A000000204180
:100BD000380000203C0000207047000000B587B0BE
:100BE0000121084600F0A8FC0121102000F0D4FCEF
:100BF00007220A211D4800F099F8072209211B4805
:100C000000F094F800208DF81A0001208DF81B00E8
:100C100002208DF818000002059002208DF81900BE
:100C200005A9124800F03AF802208DF81800400299
:100C3000059005A90D4800F031F84FF4E13001901E
:100C40000020ADF80800ADF80A00ADF80C00ADF8D2
:100C500010000C20ADF80E0001A9054801F0ACF918
:100C60000121034801F08EF907B000BD00000240E9
:100C70000010014001B50849009808604FF0E020DD
:100C8000006940F001004FF0E021086100BF024818
:100C900000680028FBD108BD48000020F0B50A46D6
:100CA00000210023002400BF3DE0012505FA01F3E7
:100CB000156805EA03049C4234D105684F000326F9
:100CC000BE40B543056015794E00B5400668354312
:100CD00005601579012D02D01579022D16D1856890
:100CE0004F000326BE40B543856055794E00B540A0
:100CF000866835438560456801268E40B54345606A
:100D0000456896798E40B6B235434560C5684F0058
:100D10000326BE40B543C560D5794E00B540C668D0
:100D20003543C560491C1029BFD3F0BDF0B5002381
:100D300000244D07ED0E02FA05F3CE1000F1200558
:100D400055F826504E07F70E0F26BE40B543CF107C
:100D500000F1200646F82750CE1000F1200555F886
:100D6000265045EA0304CE1000F1200545F8264040
:100D7000F0BD0246002013690B400BB1012000E0DA
:100D80000020704741837047018370471CB50121E3
:100D9000084600F0D1FB4FF40050009001208DF880
:100DA000040000208DF806008DF8070003208DF860
:100DB000050069460A48FFF771FF4FF400400090B4
:100DC00000208DF804008DF806008DF80700032040
:100DD0008DF8050069460248FFF760FF1CBD000062
:100DE0000000024070B54FF400512948FFF7CCFFD6
:100DF0000A20FFF7E3FD4FF400512548FFF7C2FF3B
:100E00000024002500260AE0701C0646214988427D
:100E100005D921A001F04EF94FF0FF3070BD4FF41D
:100E200000411B48FFF7A5FF0028EDD01E4800F049
:100E300097FE044600260AE0701C064615498842C3
:100E400005D915A001F036F94FF0FF30E6E74FF471
:100E500000410F48FFF78DFF0128EDD0124800F048
:100E60007FFE0546A54205D9281BFFF73FFA0F492B
:100E7000086007E04FF6FF71091B4819FFF736FAC3
:100E80000A49086009480068FFF735FAC6E700001C
:100E90000000024040420F000D0A20CBC0CBC0CB67
:100EA000C0200D0A000000000008004028000020BB
:100EB00000B587B00121042000F04EFB4FF6FF7013
:100EC0000590154800681549B0FBF1F0401E80B24E
:100ED000ADF810000020ADF81800ADF8120004A91C
:100EE0000F4800F0C9FE0820ADF804000020ADF85E
:100EF00006000120ADF808000020ADF80A00ADF8AA
:100F00000C0001A9064800F048FE0121044800F049
:100F100018FE07B000BD00000000002040420F0096
:100F20000008004010B5FFF731FFFFF7C1FF10BD0B
:100F300000BFFEE770B50246002400250023002014
:100F4000958A138B1B0445EA030626F07F4404EAC6
:100F500001068E4201D1012000E0002070BD21B1C8
:100F6000028842F00102028004E002884FF6FE731C
:100F70001A4002807047000000B587B00121480583
:100F800000F0EAFA0121022000F0D6FA042208213A
:100F90001948FFF7CBFE042209211748FFF7C6FEC8
:100FA0004FF44070019002208DF809008DF8080080
:100FB00001A91148FFF772FE104800F023F8002045
:100FC000ADF810004BF6FF70ADF812000A20ADF836
:100FD00014004FF48060ADF816000001ADF8180061
:100FE0000748039003A9054800F072F8012103485F
:100FF000FFF7B5FF07B000BD0004024000540040F9
:10100000801A060010B504461348844209D1012114
:10101000480500F0B1FA00214FF4001000F0ACFADE
:1010200018E00E48844209D10121880500F0A4FA95
:1010300000214FF4800000F09FFA0BE00848844242
:1010400008D10121C80500F097FA00214FF40000F3
:1010500000F092FA10BD000000540040005800401B
:10106000005C004021B1028842F48072028004E0FA
:1010700002884FF6FF631A400280704721B1028850
:1010800042F40072028004E002884FF6FF531A40D7
:10109000028070470CB502460020002301930093A4
:1010A00000920B0F019321F07F41019B1BB1009B2C
:1010B0001433009303E0090C009B18330093009B4A
:1010C0001B680B400BB1012000E000200CBD0000AC
:1010D0002DE9FF4704460D460026B1460427DFF8F8
:1010E000CC80A6884FF6C0700640684600F064FACF
:1010F000DDF808802E48B8FBF0F01FFA80F946EAC8
:101100000906A68020884FF6FE7108402080002640
:101110002849286888420CD828684000B8FBF0F0BD
:1011200087B2042F00DA04273E4309F1010020842E
:1011300027E0E8884BF6FF71884206D1286800EB6B
:101140004000B8FBF0F087B209E0286800EBC0016E
:1011500001EB0010B8FBF0F087B247F48047C7F30B
:101160000B0008B947F0010747F4004006434FF46D
:10117000967009FB00F04FF47A7190FBF1F0401C7F
:101180002084A683208840F00100208026884FF626
:10119000F5300640A8886989084306432680A88957
:1011A000298908432081BDE8FF87000000127A00EA
:1011B00040420F00A086010012B141F0010101E0A0
:1011C00001F0FE01018270470182704770B504464C
:1011D0000D4600BF4FF400311C48FFF75BFF0028AD
:1011E000F8D101211948FFF73DFF00BF1849174802
:1011F000FFF7A0FE0028F9D0002278211348FFF75E
:10120000DBFF00BF13491148FFF794FE0028F9D017
:1012100021460E48FFF7D8FF00BF0E49891C0B4836
:10122000FFF788FE0028F8D029460848FFF7CCFFD2
:1012300000BF0849891C0548FFF77CFE0028F8D04C
:1012400001210248FFF71AFF70BD00000054004062
:10125000010003008200070000BFFEE770470000A6
:1012600070B5002100230F22C4781CB3174C2468EA
:1012700004F4E064C4F5E064C4F30721C1F104049C
:10128000E3B20A4144789C40E1B28478144021439F
:101290000C07210E0E4C05786155047804F01F05EB
:1012A0000124AC4005786D11AD0005F1E025C5F8CD
:1012B000004109E0047804F01F050124AC40054D0D
:1012C0000678761145F8264070BD00000CED00E070
:1012D00000E400E080E100E070B50646002415E07F
:1012E00004F1B001C8B200F0D7FE002000F0D4FE37
:1012F000102000F0D1FE002504E0304600F0D3FEBF
:10130000681CC5B2802DF8DB601CC4B2082CE7DB7A
:1013100070BD000010B52C48FFF750FBAE2000F068
:10132000BBFE202000F0B8FE102000F0B5FEB0207B
:1013300000F0B2FEC82000F0AFFE002000F0ACFECE
:10134000102000F0A9FE402000F0A6FE812000F051
:10135000A3FEFF2000F0A0FEA12000F09DFEA6202D
:1013600000F09AFEA82000F097FE3F2000F094FEC7
:10137000A42000F091FED32000F08EFE002000F0AB
:101380008BFED52000F088FEF02000F085FED920ED
:1013900000F082FE222000F07FFEDA2000F07CFECA
:1013A000122000F079FEDB2000F076FE202000F015
:1013B00073FE8D2000F070FE142000F06DFEAF2053
:1013C00000F06AFE10BD0000A086010070B5044662
:1013D0000D4605F1B001C8B200F05EFE102141EAF1
:1013E000141000F059FE04F00F0141F0010000F06C
:1013F00053FE70BD2DE9F04180460E46174600248D
:101400007D0131464046FFF7E1FF00BF06E00D4990
:10141000485D00F048FE6D1C601CC4B2102CF6DB69
:10142000701CC1B24046FFF7D1FF002406E0054919
:10143000485D00F038FE6D1C601CC4B2102CF6DB59
:10144000BDE8F0814F0000202DE9F04706468946AF
:1014500017469A464FF0000800240025BAF1010F04
:1014600003D0BAF1020F5ED125E020E0785D20388C
:1014700000F0FF087E2E04DD002609F1010000F0D7
:10148000FF0949463046FFF7A1FF002409E008EBB9
:101490004801264A02EB4101085D00F004FE601C91
:1014A000C4B2062CF3DBB01DC6B2681CC5B2785DB1
:1014B0000028DBD137E032E0785D203800F0FF080B
:1014C000782E04DD002609F1010000F0FF094946ED
:1014D0003046FFF77BFF002407E004EB0811144AB5
:1014E000505C00F0E0FD601CC4B2082CF5DB09F193
:1014F0000100C1B23046FFF769FF002408E004EBA9
:10150000081108310A4A505C00F0CDFD601CC4B2DD
:10151000082CF4DB06F10800C6B2681CC5B2785D81
:101520000028C9D100BF00BFBDE8F087C02E000869
:10153000E83000087047000029B1064A12680243EB
:10154000044B1A6004E0034A12688243014B1A609C
:10155000704700003038024029B1064A1268024341
:10156000044B1A6004E0034A12688243014B1A607C
:10157000704700004038024029B1064A1268024311
:10158000044B1A6004E0034A12688243014B1A605C
:10159000704700002038024029B1064A1268024311
:1015A000044B1A6004E0034A12688243014B1A603C
:1015B0007047000044380240F0B5002100220024AA
:1015C000022500260223324F3F6807F00C0121B1AB
:1015D000042905D0082937D105E02E4F076036E0F1
:1015E0002D4F076033E02A4F3F1F3F68C7F38056F7
:1015F000274F3F1F3F6807F03F036EB1264FB7FBF1
:10160000F3F7DFF88CC0ACF1040CDCF800C0CCF3CD
:10161000881C07FB0CF40CE01E4FB7FBF3F7DFF858
:1016200070C0ACF1040CDCF800C0CCF3881C07FBE4
:101630000CF4174F3F1F3F68C7F301477F1C7D0025
:10164000B4FBF5F7076002E0124F076000BF00BF70
:101650000F4F3F6807F0F0010909104F7A5C0768E7
:10166000D74047600A4F3F6807F4E051890A0B4FA3
:101670007A5C4768D7408760054F3F6807F4604150
:10168000490B064F7A5C4768D740C760F0BD000041
:10169000083802400024F40040787D011400002046
:1016A00070B50025002427E000BF4FF40051144816
:1016B000FFF75FFB0028F8D02820FFF77FF94FF4F1
:1016C00000510F48FFF755FB01280ED100BF4FF422
:1016D00000510B48FFF74DFB0128F8D0C4F107017A
:1016E00001208840C0B2054304E0C4F10701012095
:1016F00088408543601CC4B2082CD5DB284670BDE9
:101700000008024070B50446FFF7B2F94FF40051EB
:101710003148FFF737FB44F62060FFF74FF94FF4ED
:1017200000512D48FFF730FB1E20FFF747F9FFF768
:101730008BF94FF400512848FFF71BFB002849D1D3
:10174000002509E0681C85B2B5F57A7F01DD00202F
:1017500070BD0A20FFF732F94FF400511E48FFF721
:1017600008FB0028EED0002509E0681C85B2B5F51D
:101770007A7F01DD0020EBE70A20FFF71FF94FF425
:1017800000511548FFF7F5FA0128EED0FFF788FF62
:101790002070FFF785FF6070FFF782FFA070FFF7F2
:1017A0007FFFE070FFF77CFF2071FFF761F94FF4D6
:1017B00000510948FFF7E8FA207861780844A178D9
:1017C0000844E17808442179884201D10120BFE72B
:1017D0000020BDE70020BBE7000802407047000082
:1017E0000CB50020019000903448006840F480302F
:1017F0003249086000BF3148006800F400300090B2
:101800000198401C0190009818B90198B0F5A04FBC
:10181000F1D12A48006800F4003010B10120009096
:1018200001E0002000900098012846D12348403074
:10183000006840F08050214940310860204800682D
:1018400040F440401E4908601C48083000681B49AD
:10185000083108600846006840F400400860084607
:10186000006840F4A05008601648091F0860081F6F
:10187000006840F08070091F086000BF0F480068D2
:1018800000F000700028F9D040F205700E490860A1
:101890000A480830006820F0030008490831086051
:1018A0000846006840F00200086000BF03480830A6
:1018B000006800F00C000828F8D10CBD0038024088
:1018C0000070004019544007003C024010B500F081
:1018D0004DFB10BD30B519480068194AB0FBF2F154
:1018E000481EB0F1807F01D301201BE0481E4FF05D
:1018F000E022506150170F22002807DA13071D0E4F
:10190000104B00F00F04241F1D5503E013071C0E9D
:101910000D4B1C5400BF00204FF0E02290610720C7
:101920001061002008B100BFFEE74FF0E020006921
:1019300020F001004FF0E021086130BD00000020E0
:1019400040420F0018ED00E000E400E010B512483E
:10195000006840F001001049086000200E4908317D
:1019600008600D4800680D4908400B4908600C48A4
:10197000091D0860081F006820F48020091F086006
:10198000002005490C310860FFF72AFF4FF0006086
:101990000449086010BD000000380240FFFFF6FE59
:1019A0001030002408ED00E0F0B50C46154600218B
:1019B0000022068C4FF6FE773E400684018B028C97
:1019C0004FF60C7631407E1C06EA03162E43314357
:1019D0004FF6F576324044F001063243018302842B
:1019E000F0BDF0B50C461546002100220026078CFC
:1019F0004FF6EF7C07EA0C070784018B028C4FF649
:101A0000FF7707EA041640F6FF4739404FF6FF77A5
:101A100007EA033739434FF6FF7707EA05273943CB
:101A20004FF65F773A4046F010073A43018302844D
:101A3000F0BDF0B50C461546002100220026078CAB
:101A40004FF6FF6C07EA0C070784818B028C4FF678
:101A5000FF7707EA04264FF60C7739404FF6FF77F9
:101A600007EA03172F4339434FF2FF573A4046F432
:101A700080773A4381830284F0BDF0B50C46154669
:101A8000002100220026078C4EF6FF7C07EA0C0797
:101A90000784818B028C4FF6FF7707EA043640F605
:101AA000FF4739404FF6FF7707EA052739434FF6DE
:101AB000FF7707EA0337394345F6FF773A4046F4A4
:101AC00080573A4381830284F0BD000010B50121A4
:101AD000164800F051F838B31548007801280DD1A8
:101AE00014480068401C13490860084600684FF617
:101AF000FF71884202D100200E4908600C4800782E
:101B000002280DD10C480068401C0B4908600846AB
:101B100000684FF6FF71884202D100200649086034
:101B20000121024800F00AF810BD00000004004046
:101B3000240000203000002034000020CA4302822C
:101B4000704721B1028842F00102028004E002885D
:101B50004FF6FE731A40028070470146486B70478B
:101B60000146486A704702460020138A0B400BB1B9
:101B7000012000E00020704730B50246002000231D
:101B80000024158A05EA0103958905EA010413B1C9
:101B90000CB1012000E0002030BD70B505460C46B8
:101BA000208850B92389A28861882846FFF7FCFE67
:101BB000E188284600F033F825E0208804280AD17F
:101BC0002389A28861882846FFF70BFFE188284611
:101BD00000F02EF817E0208808280AD12389A2886F
:101BE00061882846FFF725FFE188284600F02DF898
:101BF00009E02389A28861882846FFF73EFFE18833
:101C0000284600F02BF870BD1AB183890B438381FD
:101C100002E083898B438381704741627047028B66
:101C20004FF6F3731A400283028B0A430283704714
:101C3000028B4FF2FF331A400283028B4FF6FF7381
:101C400003EA01231A4302837047828B4FF6F37332
:101C50001A408283828B0A4382837047828B4FF2C1
:101C6000FF331A408283828B4FF6FF7303EA01230E
:101C70001A4382837047000000220288184B984262
:101C80000ED0184B98420BD0B0F1804F08D0164BB5
:101C9000984205D0154B984202D0154B984204D17A
:101CA0004FF68F731A404B881A43124B984207D055
:101CB000114B984204D04FF6FF431A400B891A4348
:101CC00002804B68C3620B880385054B984202D0A3
:101CD000044B984201D18B7A03860123838270479B
:101CE00000000140000401400004004000080040E2
:101CF000000C0040001000400014004030B589B0D6
:101D000005460C4601210846FFF726FC012108463E
:101D1000FFF712FC012205211C48FFF707F82020DD
:101D2000079002208DF8200003208DF8210000206C
:101D30008DF822008DF8230007A91448FEF7AEFFA6
:101D40000595ADF810400020ADF81800ADF8120070
:101D500004A94FF08040FFF78FFF0020ADF804008A
:101D6000ADF806000120ADF808000020ADF80A002B
:101D7000ADF80C0001A94FF08040FFF70EFF0121E4
:101D80008807FFF7DEFE09B030BD0000000002400A
:101D900070B506460024002505E000F00BF8044667
:101DA000AC4200DD2546301EA6F10101CEB2F4D1D1
:101DB000284670BD10B500F06FF80DE04FF0804080
:101DC000FFF7CEFE4FF60B61884205D94FF08040F9
:101DD000FFF7C6FE80B210BD02214807FFF7C3FE21
:101DE0000028EBD04FF08040FFF7B7FE80B2F2E75B
:101DF00070B586B0002614214FF6FF70FFF77EFF06
:101E000000240AE0FFF7D6FF01A921F8140042F2EE
:101E10001070FEF72FFF601CC4B20A2CF2DB002406
:101E20001BE0601CC5B214E001A830F8140001A941
:101E300031F8151088420ADD01A830F8146030F836
:101E4000150001A921F8140001A820F81560681CEC
:101E5000C5B20A2DE8DB601CC4B2092CE1DB002608
:101E6000022405E001A830F814000644601CC4B246
:101E7000082CF7DB0620B6FBF0F006490880084680
:101E80000088B0F5004F02DB012006B070BD0020D5
:101E9000FBE700004C0000201CB520200090012032
:101EA0008DF8040003208DF8050000208DF8060051
:101EB00002208DF8070069461348FEF7EFFE202147
:101EC0001148FEF75FFF41F28830FEF7D3FE032191
:101ED0004FF08040FFF732FE00214FF08040FFF7C7
:101EE0009CFE2020009002208DF8040003208DF835
:101EF000050000208DF806008DF8070069460248AD
:101F0000FEF7CCFE1CBD0000000002402DE9F041B0
:101F10000546002603271DB1062700201149087039
:101F20003846FFF735FF04460F48008832308442B8
:101F30000DDD0D48008800EB80004000A04206DD6A
:101F40000848007800B901260320064908700548B2
:101F5000007820B103480078401E024908703046DE
:101F6000BDE8F0814E0000204C00002004480068CD
:101F700020B103480068401E014908607047000016
:101F80004800002021B1828942F40052828104E09D
:101F900082894DF6FF731A40828170470246002005
:101FA000B1F5007F00D100BF13880B400BB10120B9
:101FB00000E00020704700002DE9FF4705460E466F
:101FC0000024A14600BFA046B08900B100BF2C8A02
:101FD00024F44054F08804432C82AC8941F20C6014
:101FE0008443B08831890843718908430443AC8134
:101FF000AC8A24F44074B0890443AC826846FFF78D
:10200000DBFA2048854202D01F48854202D1DDF824
:102010000C9001E0DDF80890A88900F4004040B180
:1020200009EBC90000EB091031684900B0FBF1F77A
:1020300007E009EBC90000EB091031688900B0FB2B
:10204000F1F76420B7FBF0F004012009642101FBE3
:102050001078A88900F4004040B1322000EBC8009D
:10206000B0FBF1F000F00700044308E0322000EB81
:1020700008106421B0FBF1F000F00F0004432C8144
:10208000BDE8FF870010014000140140C1F30802C1
:102090008280704700BFFEE710B50446214600204D
:1020A000FFF794F810BD10B5044621464020FFF715
:1020B0008DF810BD0FB4054B10B503A9044A029862
:1020C00000F0EEF810BC5DF814FB0000592A00087F
:1020D000500600200FB4084B10B504A902AA0398BB
:1020E00000F0DEF8044602A9002000F070FC204653
:1020F00010BC5DF814FB0000CF29000802E008C8FE
:10210000121F08C1002AFAD170477047002001E071
:1021100001C1121F002AFBD1704700002DE9FF5FAB
:1021200082B00021DDE90430020DDDF840B0034348
:1021300018D044F61050A2F2FF3242431514119801
:1021400001281FD0A5EB0B00401C5FEA000A4FF0EE
:1021500000064E4FDFF83891B046504615D5CAF10B
:10216000000413E0119801244AA3012801D16FEA69
:102170000B010298119AC0E90031C0E9024206B091
:10218000BDE8F09FCBF10000DFE704460021404AA4
:10219000491842EB0450CDE9001012E0E00707D0E7
:1021A00032463B4640464946FEF7F1F980468946AD
:1021B00032463B4610461946FEF7E9F906460F46F9
:1021C0006410002CEAD1DDE90401DDE90023BAF155
:1021D000000F06DAFEF7DBF942464B46FEF7D7F969
:1021E00005E0FEF746FA42464B46FEF742FA044641
:1021F0000E460022284BFEF7C3FA03D84FF0FF30FB
:10220000014607E00022254B20463146FEF718F92B
:10221000FEF79EFA102409E0002C0ADB0A220023B4
:10222000FEF7A6F8039B30321A55641E50EA0102ED
:10223000F2D1641C039AC4F111031444119A012AC7
:1022400003D0012208430DD10AE0084304D0002046
:102250004FF0110B119072E7A3EB0B056D1E0DE013
:102260005B4504DD4FF0000205F1010504E003DAEF
:102270004FF00002A5F10105002AECD00298119957
:10228000C0E90231C0E9004579E7000000001440D0
:102290000000F03F300000000000F0430000E03F8D
:1022A0002DE9FF4F95B09B468946064600250FE273
:1022B000252877D100242746F84A0121059400E01B
:1022C000044316F8013F203B01FA03F01042F7D116
:1022D00030782A2811D06FF02F033078A0F1300227
:1022E000092A16D8059A44F0020402EB820203EB95
:1022F00042021044761C0590EFE759F8042B059232
:10230000002A03DA504244F40054059044F00204D9
:10231000761C30782E2816D116F8010F44F00404EC
:102320002A280DD06FF02F023078A0F13003092B4E
:1023300009D807EB870302EB4303C718761CF3E7C2
:1023400059F8047B761C30786C280FD006DC4C28BA
:1023500017D068280DD06A2814D104E0742810D052
:102360007A280FD10DE044F400140AE044F48014FC
:1023700001E044F440147278824202D104F58014E2
:10238000761C761C307866280BD013DC582877D062
:1023900009DC002875D04528F6D04628F4D0472817
:1023A0001AD19DE118E0632835D0642879D06528DA
:1023B00012D195E1702873D008DC6728F1D0692824
:1023C0006FD06E280DD06F2806D1B5E073282CD0C1
:1023D000752875D0782874D05A46179990476D1C87
:1023E00075E1C4F30250022809D003280DD0D9F8B2
:1023F000001004280DD00D6009F1040967E1D9F837
:102400000010EA17C1E90052F6E7D9F800100D8074
:10241000F2E70D70F0E719F8041B8DF800100020AA
:102420008DF80100EA46012003E059F804AB4FF0B3
:10243000FF3061074FF0000102D40DE008F1010107
:102440008846B9420FDA8045F8DB1AF808100029EF
:10245000F4D108E008F1010188468142FADB1AF85C
:1024600008100029F6D105985B46A0EB0807214625
:102470003846179A00F094FA284400EB080507E064
:102480004DE029E10DE01AF8010B5A4617999047E3
:10249000B8F10108F7D25B4621463846179A13E196
:1024A00042E00A220092C4F302524FF0000A022ACC
:1024B00008D059F804CB032A4FEAEC710AD00DE09A
:1024C00029E02AE009F1070121F00702F2E802C140
:1024D000914609E00FFA8CFC4FEAEC71042A03D113
:1024E0004FFA8CFC4FEAEC71002907DA0A4600210A
:1024F000DCF1000C61EB02012D2202E0220504D583
:102500002B228DF80420012203E0E20701D02022D3
:10251000F7E7904659E00A2102E010220DE0102171
:102520004FF0000A00910BE010224FF0000A44F037
:1025300004040827009203E008224FF0000A0092EA
:10254000C4F30252022A05D059F804CB0021032A11
:1025500008D009E009F1070121F00702F2E802C101
:10256000914605E01FFA8CFC042A01D10CF0FF0C07
:102570004FF00008220728D5702806D0009B83F072
:10258000100353EA0A0305D00EE040228DF8042020
:10259000012208E05CEA010206D030228DF8042016
:1025A0008DF8050002229046009B83F0080353EA51
:1025B0000A030AD15CEA010201D1620705D5302283
:1025C0008DF804204FF001087F1E582804D034A055
:1025D00003900EA802900DE036A0F9E7534660463E
:1025E000009AFDF7C5FE84460398825C0298401E5F
:1025F000029002705CEA0100F0D1029806A9081A64
:1026000000F1200A600702D524F4803400E001279D
:10261000574502DDA7EB0A0000E0002000EB0A01AD
:10262000009005984144401A0590E00306D45B46AB
:102630002146179A059800F0B3F90544002706E0F3
:1026400001A85A46C05D179990476D1C7F1C4745ED
:10265000F6DBE0030CD55B462146179A059800F09F
:102660009FF9054404E030205A46179990476D1CA5
:102670000099481E00900029F5DC08E002980299B4
:102680005A460078491C0291179990476D1CBAF17F
:102690000001AAF1010AF1DC65E10000092801004E
:1026A00030313233343536373839616263646566C8
:1026B000000000003031323334353637383941428A
:1026C000434445460000000000F058F90544761CDC
:1026D000307800287FF4ECAD19B02846BDE8F08FC3
:1026E000620700D4062709F1070222F0070CFCE874
:1026F0000223E14603F000485FEA080C02D00FF223
:10270000702C0DE05FEA045C02D50FF2682C07E044
:102710005FEAC47C02D00FF2602C01E0AFF2700CD3
:102720004FF0FF3823F00043CDF850C065280CD09F
:1027300006DC452809D046281DD047283DD13DE07C
:10274000662818D067287ED138E00021112F01DBE0
:10275000112000E0781CCDE9000106A90EA8FFF7C2
:10276000DDFCDDE90F010E9A03910021009207F1D3
:10277000010A04914DE04FF000400097CDE90110AF
:1027800006A90EA8FFF7CAFCDDE90F0203920E9B13
:1027900011990022DDF80CA00093049211B9791C64
:1027A00000EB010AB7EB0A0004D4C0F1FF3007F1D7
:1027B000010A0490AAEB0700019044E0012F00DA1F
:1027C00001270021112F01DD112000E03846CDE95D
:1027D000000106A90EA8FFF7A1FCDDE90F010E9A82
:1027E0000391002104910092BA4621070CD4039969
:1027F000514500DA8A46BAF1010F05DD009AAAF1C7
:102800000101515C302908D0B84202DA10F1040FFE
:1028100006DA0121CDE9011015E0AAF10101E9E78D
:10282000002805DC049901440491AAEB000102E0B0
:10283000411C514500DD8A460499401A401C019014
:102840004FF000400290200704D40198504501DB6E
:10285000CDF8048000208DF84F0002980DF14F074D
:10286000B0F1004F25D02B200E9002984FF00208B7
:1028700000280CDA404202902D200E9007E00A2139
:102880000298FDF75FFD3031029007F8011DB8F1A5
:102890000001A8F10108F2DC02980028EFD1791EAE
:1028A0000E980870307800F0200040F0450007F8DE
:1028B000020D12A8C01B00F107081498007800B19F
:1028C000012000EB0A01019801EBE07105984144F9
:1028D000401A401E0590E00306D45B462146179A35
:1028E000059800F05DF805441498007818B15A4630
:1028F000179990476D1CE00324D55B462146179A33
:10290000059800F04DF805441CE00498002807DB0A
:10291000DDE90301884203DD0098405C179901E07E
:10292000179930205A469047049805F10105401C3C
:1029300004900198401E019004D12E205A46179908
:1029400090476D1CBAF10001AAF1010ADDDC05E037
:1029500017F8010B5A46179990476D1CB8F1000102
:10296000A8F10108F4DC5B462146179A0598ABE60E
:102970002D0000002B000000200000002DE9F04198
:10298000044600251E461746880404D405E039464F
:102990002020B0476D1C641EF9D52846BDE8F081A3
:1029A0002DE9F041044600251E469046C80301D596
:1029B000302700E02027880404D505E0414638464A
:1029C000B0476D1C641EF9D52846BDE8F0810A6841
:1029D000531C0B601070704710B51C480078D0B1C4
:1029E000012802D002282ED10AE080201849088050
:1029F0001848FEF73FF980201549891C088023E01C
:102A00008020134908801348FEF734F980201049CC
:102A1000891C088018E080200D4908800D48FEF7C9
:102A200029F980200A49891C08800A48FEF722F902
:102A30008020074908800748FEF71CF980200449D8
:102A4000891C088000E000BF00BF10BD24000020EA
:102A500018180240A086010070B504460D46E1B288
:102A60000548FFF713FB00BF80210348FFF796FAE4
:102A70000028F9D0204670BD00100140FEF7AEF8E6
:102A8000FEF728FFFDF7C4FFFFF7B2F9FDF75CFF83
:102A9000FEF748FA00F0B6F920A0FFF70BFBFDF7B0
:102AA000FFFF2CA0FFF706FB00F0DCF835E000F09C
:102AB0008DF80020FFF72AFA00282ED03048007841
:102AC00050B930A0FFF7F6FA01213348FFF739F883
:102AD00001202B4908701CE029480078012806D104
:102AE0002EA0FFF7E7FA02202549087011E02448DC
:102AF000007802280DD12FA0FFF7DCFA002126482C
:102B0000FFF71FF800202F4908602F4908601C4973
:102B10000870FFF761FF00F0A5F8C8E70D0A202A4A
:102B20002A2AD2B0BBF046343037BFAAB7A2B0E5EC
:102B300020CEC2CAAAB6C8A1A2B3ACC9F9B2A84FE6
:102B40004C4544CFD4CABECAB5D1E92A2A2A200DA1
:102B50000A0000000D0A2A2A2A20D2B0BBF046340F
:102B60003037BFAAB7A2B0E52035307573B6A8CA12
:102B7000B1C6F7BFAAC6F4202A2A2A0D0A0000000F
:102B8000240000200D0A2A2A2ABFAAC6F444485469
:102B900031312A2A2A0D0A00000400400D0A2A2A8F
:102BA0002ABFAAC6F448435F535230342A2A2A0D5A
:102BB0000A0000000D0A2A2A2AB9D8B1D52A2A2AE1
:102BC0000D0A0000300000203400002070B51B48C2
:102BD000007801280DD11A48006849F64041884222
:102BE0002AD3002016490860FDF78AFF00F012F989
:102BF00022E01248007802281ED112480068B0F581
:102C0000966F19D300200F490860FEF7EBF84000DB
:102C10003A21B0FBF1F42046FDF768FB0A49086051
:102C200008460068FDF77BFB044622460B4607A0DA
:102C3000FFF740FA00F0EEF870BD0000240000201D
:102C400030000020340000202C0000200D0A2064F9
:102C5000697374616E6365203D3D20252E32666385
:102C60006D0D0A0070B56048007800284BD1FEF762
:102C700033FB00240C250BE0202101EB0411C8B22A
:102C80002A460021FEF7B6FB601CC4B2681CC5B220
:102C9000042CF1DB022355A219460020FEF7D4FBD9
:102CA000022353A205210020FEF7CEFB00240225BB
:102CB0000BE0102101EB0411C8B22A460221FEF7F5
:102CC00099FB601CC4B2681CC5B2042CF1DB0A225B
:102CD00002215020FEF78EFB0B2202216020FEF71E
:102CE00089FB002407250BE0102101EB0411C8B279
:102CF0002A460521FEF77EFB601CC4B2681CC5B2E3
:102D0000052CF1DB6EE038480078012840D1002026
:102D1000FEF7E2FA002409E0002101EB0411C8B239
:102D200022460021FEF766FB601CC4B2042CF3DBD4
:102D3000002409E0002101EB0411C8B2224603215E
:102D4000FEF758FB601CC4B2022CF3DB0422032103
:102D50002020FEF74FFB052203213020FEF74AFB1F
:102D6000022324A200214020FEF76EFB022321A2B1
:102D700003214020FEF768FB062200217020FEF7A9
:102D800039FB02231CA203216520FEF75DFB29E02D
:102D900015480078022825D10020FEF79DFA00246E
:102DA00007250BE0002101EB0411C8B22A460021DF
:102DB000FEF720FB601CC4B2681CC5B2052CF1DB19
:102DC00002230CA200215020FEF73EFB02230BA29F
:102DD00004213C20FEF738FB022309A204216520D0
:102DE000FEF732FB70BD000024000020310000001F
:102DF000320000003A000000255248003030000048
:102E0000636D000010B5FDF7BFFDFEF7B5F8FEF7E6
:102E100081FA10BD70B520480078012821D11F48E3
:102E20000068FDF77CFA044622460B461CA11E48AA
:102E3000FFF750F91D480068FDF75DFAC4B222465D
:102E40001BA11C48FFF746F90223174A00214B201B
:102E5000FEF7FAFA0223174A03214B20FEF7F4FA91
:102E600019E00D480078022815D113480068FDF7D5
:102E700042FAC4B222460EA10B48FFF72BF90223F7
:102E80000EA204213C20FEF7DFFA0223064A0421A9
:102E90003C20FEF7D9FA70BD240000203C00002041
:102EA000252E316620000000540600203800002046
:102EB00025642000600600202C0000202020200037
:102EC0000000000000000000002F000000000700CC
:102ED000070000147F147F1400242A7F2A12006246
:102EE00064081323003649552250000005030000F2
:102EF00000001C224100000041221C000014083E7A
:102F000008140008083E0808000000A0600000083F
:102F10000808080800006060000000201008040293
:102F2000003E5149453E0000427F40000042615151
:102F30004946002141454B31001814127F100027EB
:102F400045454539003C4A494930000171090503AE
:102F500000364949493600064949291E00003636DF
:102F60000000000056360000000814224100001442
:102F7000141414140000412214080002015109061F
:102F800000324959513E007C1211127C007F4949A0
:102F90004936003E41414122007F4141221C007FD1
:102FA00049494941007F09090901003E4149497ADF
:102FB000007F0808087F0000417F41000020404159
:102FC0003F01007F08142241007F40404040007FC5
:102FD000020C027F007F0408107F003E4141413E09
:102FE000007F09090906003E4151215E007F091951
:102FF00029460046494949310001017F0101003F4E
:103000004040403F001F2040201F003F4038403FCD
:103010000063140814630007087008070061514931
:10302000454300007F41410000552A552A550000C4
:1030300041417F0000040201020400404040404042
:10304000000001020400002054545478007F4844DA
:10305000443800384444442000384444487F003811
:103060005454541800087E0901020018A4A4A47C3A
:10307000007F080404780000447D40000040808404
:103080007D00007F102844000000417F4000007C4C
:1030900004180478007C0804047800384444443858
:1030A00000FC242424180018242418FC007C0804A4
:1030B000040800485454542000043F444020003C7D
:1030C0004040207C001C2040201C003C4030403C04
:1030D000004428102844001CA0A0A07C0044645494
:1030E0004C441414141414140000000000000000D8
:1030F0000000000000000000000000F800000000D8
:10310000000000333000000000100C06100C060018
:10311000000000000000000040C07840C07840007F
:10312000043F04043F040400007088FC08300000E1
:10313000001820FF211E0000F008F000E018000039
:1031400000211C031E211E0000F0088870000000F2
:103150001E2123241927211010160E000000000044
:103160000000000000000000000000E01804020061
:10317000000000071820400000020418E0000000D2
:103180000040201807000000404080F080404000D0
:103190000202010F01020200000000F00000000026
:1031A0000101011F010101000000000000000000FA
:1031B00080B070000000000000000000000000006F
:1031C00000010101010101010000000000000000F8
:1031D0000030300000000000000000008060180493
:1031E000006018060100000000E010080810E00070
:1031F000000F102020100F00001010F80000000039
:103200000020203F2020000000700808088870007F
:1032100000302824222130000030088888483000FF
:103220000018202020110E000000C02010F800001F
:1032300000070424243F240000F8088888080800B8
:103240000019212020110E0000E0108888180000CD
:10325000000F112020110E0000380808C83808009F
:103260000000003F0000000000708808088870001F
:10327000001C222121221C0000E010080810E000A0
:103280000000312222110F00000000C0C000000029
:10329000000000303000000000000080000000004E
:1032A0000000806000000000000080402010080046
:1032B000000102040810200040404040404040000F
:1032C00004040404040404000008102040800000EA
:1032D0000020100804020100007048080808F000EF
:1032E0000000003036010000C030C828E810E000BF
:1032F0000718272423140B000000C038E00000004A
:10330000203C23020227382008F8888888700000B3
:10331000203F202020110E00C03008080808380087
:10332000071820202010080008F808080810E000FE
:10333000203F202020100F0008F88888E80810009F
:10334000203F20202320180008F88888E808100073
:10335000203F200003000000C030080808380000AB
:1033600007182020221E020008F808000008F808AC
:10337000203F210101213F20000808F80808000033
:103380000020203F2020000000000808F808080066
:10339000C08080807F00000008F888C028180800DE
:1033A000203F20012638200008F808000000000017
:1033B000203F20202020300008F8F800F8F808000E
:1033C000203F003F003F200008F830C00008F80808
:1033D000203F200007183F00E01008080810E00018
:1033E0000F10202020100F0008F808080808F0002F
:1033F000203F210101010000E01008080810E00052
:103400000F18242438504F0008F8888888887000E6
:10341000203F2000030C3020007088080808380086
:103420000038202121221C00180808F8080818007C
:103430000000203F2000000008F808000008F808FD
:10344000001F202020201F000878880000C83808AE
:10345000000007380E010000F80800F80008F80026
:10346000033C0700073C03000818688080681808C0
:1034700020302C03032C30200838C800C83808003E
:103480000000203F2000000010080808C83808008D
:103490002038262120201800000000FE0202020031
:1034A0000000007F40404000000C30C000000000E1
:1034B000000000010638C00000020202FE00000009
:1034C000004040407F0000000000040202020400AF
:1034D00000000000000000000000000000000000EC
:1034E00080808080808080800002020400000000D4
:1034F00000000000000000000000808080800000CC
:103500000019242222223F2008F8008080000000B9
:10351000003F112020110E0000000080808000007C
:10352000000E112020201100000000808088F8008B
:10353000000E112020103F200000808080800000BD
:10354000001F222222221300008080F08888881821
:103550000020203F2020000000008080808080002C
:10356000006B94949493600008F8008080800000C1
:10357000203F210000203F2000809898000000009C
:103580000020203F202000000000008098980000CC
:1035900000C08080807F000008F8000080808000EC
:1035A000203F24022D302000000808F80000000011
:1035B0000020203F202000008080808080808000CC
:1035C000203F20003F20003F80800080808000005E
:1035D000203F210000203F200000808080800000EC
:1035E000001F202020201F0080800080800000001D
:1035F00080FFA12020110E0000000080808080004C
:10360000000E112020A0FF8080808000808080003C
:1036100020203F2120000100000080808080800069
:103620000033242424241900008080E080800000DE
:103630000000001F2020000080800000008080002B
:10364000001F202020103F2080808000008080808C
:1036500000010E300806010080800080008080801C
:103660000F300C030C300F00008080008080800041
:103670000020312E0E31200080808000008080806C
:1036800080818E701806010000808080808080001C
:103690000021302C2221300000000000807C02023A
:1036A00000000000003F404000000000FF0000005C
:1036B00000000000FF0000000002027C800000000B
:1036C0000040403F00000000000601010202040427
:1036D000000000000000000000129490909F909065
:1036E00094F200000004040404040404040F000025
:1036F00004F4555654F404E605F40400000F0101E7
:10370000090F0003080F0000009E12F29E00FE1237
:103710001212F200080F080704000F090909090036
:1037200082BAA2B6AAEBAAB6A2BA82000F00040619
:103730000504060C00080F0040405F5555D555554F
:103740005F40400008040304080F09090909080044
:10375000004042445840407F40405048C60000006E
:10376000004044444444444444444444FF00000072
:103770000808E8292E28E80808C80C0BE808080003
:103780000000FF0949897F00000F40807F00000092
:10379000003E22E2223E00FE2222222222E20200FB
:1037A000203F201F1111007F4444444444474000FF
:1037B000040404F484D4A5A6A4D484F4040404006A
:1037C00000FE0202123A1613121A3242827E0000E2
:1037D0000000007F494949494949497F00000000EC
:1037E0008141211D214181FF898989898981810048
:1037F0001060028C0000FE9292929292FE000000F5
:1038000004047E01407E42427E427E42427E40006F
:103810001060028C00FE929292929292FE00000042
:1038200004047E014448507F40407F50484440009B
:103830000000FC242424FC252624FC242424040049
:1038400040308F80844C55252525554C8080800044
:10385000000000C080808080808080FC8480808028
:10386000808080C0C0000000000000FF7F4040401A
:10387000404040FF40404040404040FF7F0000004B
:1038800000000000000000000000007F7000000049
:103890000000000000000000000000000000000028
:1038A00000000000000000FCF80000000000000024
:1038B000000000000000000000000000FFFE020207
:1038C00002020202020202FFFF02020202020202DE
:1038D0000202FF0300000000000000001F1F04049C
:1038E00004040404040404FFFF04040404040404A2
:1038F00004041F00000000000000000000000000A1
:10390000000000000000007F3F00000000000000F9
:1039100000000000000000000000000000000000A7
:103920000000000000000000000000000000000097
:103930000000000000F8F8F0F07020000000000027
:103940000000000000000000000000000000000077
:103950000000000000000000000000000000000067
:1039600080000000000000000000000000000000D7
:103970000000000000FFFFFFFF000000000000004B
:103980000000000000000000000000008080000037
:103990000000000000000000000000000000000027
:1039A00000FFFFFE060606060606060606060606D3
:1039B0000606060606FFFFFFFF06060606060606C3
:1039C0000606060606060606060606FFFFFFFF07B2
:1039D00002000000000000000000000000000000E5
:1039E00000FFFFFF000000000000000000000000DA
:1039F0000000000000FFFFFFFF00000000000000CB
:103A00000000000000000000000000FFFFFFFF00BA
:103A100000000000000000000000000000000000A6
:103A200000FFFFFF18181818181818181818181879
:103A30001818181818FFFFFFFF181818181818186A
:103A40001818181818181818181818FFFFFFFF0072
:103A50000000000000000000000000000000000066
:103A60000201010000000000000000000000000052
:103A70000000000000FFFFFFFF000000000000004A
:103A80000000000000000000000000010100000034
:103A90000000000000000000000000000000000026
:103AA0000000000000000000000000000000000016
:103AB0000000000000FFFFFFFF000000000000000A
:103AC00000000000000000000000000000000000F6
:103AD00000000000000000000000000000000000E6
:103AE00000000000000000000000000000000000D6
:103AF00000000000001F1F0F0F000000000000006A
:103B000000000000000000000000000000000000B5
:103B10000000000000000000383B0008000000200A
:103B200054060000F0080008F03D0008540600208C
:103B30001C0400000C21000811847A030A680901A2
:103B4000020304060708090CA9100128380D404299
:103B5000445840407F40405048C6107A440132FFEC
:103B6000180D0808E8292E28E80808C80C0B0631AB
:103B700026FF0949897F1C0F40800611251060022D
:103B80008C2BFE920132FE180A04047E01407E4214
:103B9000427E0234427E402809FC242424FC25264F
:103BA00024081204481040308F80844C5525252568
:103BB000554C80808040493F79401C444850900DCE
:103BC000207F504844402809060909E6F80C040201
:103BD0000153041E2E071F302040011B2010CF2050
:103BE0000E484848FF484842A29E82A2C2BE180A18
:103BF00080601F207F4444404F1814484F401D04EC
:103C000014D454012ADF052CD4140420294B3A0380
:103C10000549E0130CC0180AF8888888FF8888A82E
:103C200018A01B7C0324180880432C10284681C050
:103C3000180C10D0FF905020504C434C507611136C
:103C4000040312FF1809414458414E605847104977
:103C5000E01502F202FE1AF81A39E0178047300F19
:103C600010271C47807F602940180A14E4AFA4A4E1
:103C7000A4AFE404202940280A894B2A1A0E1A2AE4
:103C80004B88602A900118081010FF10101116D1EF
:103C900010082060203F10101017030C102040F86F
:103CA00015404042CC300A504EC8487FC848484072
:103CB0002C40201F8E1F40404F50505C80193911FE
:103CC000100B82864A52A2524A8680801542827F19
:103CD000011E10121212FF04194F11100A030509D8
:103CE00011FF118905C312E01AF0A461073D4428B1
:103CF000FF11AA44700B83013844829292740183AD
:103D00001E7C44C7017D01990562FF9A0102818AE8
:103D1000010B013669419949FA0101A12A400121AB
:103D20002A6D01212A6001791501642ADB01091538
:103D3000072ADA01212AD801212AC0010915072AF8
:103D4000800101352A06010918071CE66620076A6A
:103D500086157A861C2A8601180A80808686068641
:103D600086C0C00C0E1C0606D030764D29070131E6
:103D700013601C12FE1301021009C41820029E6376
:103D8000B20E1DFF8181FFF24440300F12FF18096F
:103D900023EAAABFAAEA033F0B012DBC808080085A
:103DA0000115240E0C082A01013149041D8180806F
:103DB00081021901B91706110101090C0E0A14C07C
:103DC000012178081E21404050215E08012A4DFF44
:103DD000FFC1C10409232D581580FCF3EFF3FC80CB
:103DE000FF80EEEEEEF5FBFF9CBEB6B6883A000013
:040000050800018965
:00000001FF
