:020000040800F2
:10000000400400209D0100085D0D0008550D00080A
:10001000590D000801080008291900080000000017
:100020000000000000000000000000006110000857
:10003000FD09000800000000D90D0008511100085A
:10004000B7010008B7010008B7010008B7010008B0
:10005000B7010008B7010008B7010008B7010008A0
:10006000B7010008B7010008B7010008B701000890
:10007000B7010008B7010008B7010008B701000880
:10008000B7010008B7010008B7010008B701000870
:10009000B7010008B7010008B7010008B701000860
:1000A000B7010008B7010008B7010008B701000850
:1000B000B701000851130008B7010008B701000894
:1000C000B7010008B7010008B7010008B701000830
:1000D000B7010008B7010008B7010008B701000820
:1000E000B7010008B7010008B7010008B701000810
:1000F000B7010008B7010008B7010008B701000800
:10010000B7010008B7010008B7010008B7010008EF
:10011000B7010008B7010008B7010008B7010008DF
:10012000B7010008B7010008B7010008B7010008CF
:10013000B7010008B7010008B7010008B7010008BF
:10014000B7010008B7010008B7010008B7010008AF
:10015000B7010008B7010008B7010008B70100089F
:10016000B7010008B7010008B7010008B70100088F
:10017000B7010008B7010008B7010008B70100087F
:10018000B7010008B7010008DFF80CD000F07AFAD8
:1001900000480047C5220008400400200648804768
:1001A00006480047FEE7FEE7FEE7FEE7FEE7FEE75C
:1001B000FEE7FEE7FEE7FEE7D1110008890100082F
:1001C00096230022114600F077B820F00040C10DC0
:1001D000C0F3160040F400007F2901DA00207047C8
:1001E000962903DCC1F19601C840704796398840D2
:1001F000704700F0004230F000400AD0C10D01F518
:100200006071C0F3160042EA0151C2084007114371
:10021000704700200146704730B50B46014600206C
:100220002022012409E021FA02F59D4205D303FAB8
:1002300002F5491B04FA02F52844151EA2F1010239
:10024000F1DC30BD2DE9F05F0546002092469B466B
:1002500088460646814640241BE0284641464746DC
:10026000224600F030FA53465A46C01A914110D344
:1002700011461846224600F017FA2D1A67EB0108BE
:100280004F4622460120002100F00EFA17EB00092C
:100290004E41201EA4F10104DFDC484631462A46C7
:1002A0004346BDE8F09F0029A8BF7047401C4900A5
:1002B00008BF20F00100704710B4B0FA80FC00FACB
:1002C0000CF050EA010404BF10BC704749B1CCF1F6
:1002D000200421FA04F411FA0CF118BF0121214382
:1002E0000843A3EB0C01CB1D4FEA00614FEA10203D
:1002F00042BF002010BC704700EBC35010440029DF
:10030000A4BF10BC7047401C490008BF20F001008A
:1003100010BC70472DE9FE4F804681EA0300C00FF4
:100320000C46009021F0004123F00045B8EB02009C
:10033000A94105D24046214690461C460B4602463E
:1003400023F00040104347D0270DC7F30A00C3F342
:100350000A510290401A019040286BDAC3F313004F
:1003600040F4801B0098924620B10023D2EB030A90
:1003700063EB0B0B01985946C0F14002504600F068
:1003800093F906460D4650465946019A00F0ABF9DE
:1003900010EB08006141002487EA115284EAE773F8
:1003A0001A4340D0009A62B3019A012A4FEA0752D9
:1003B00015DC001B61EB02014FF0004202EA07521C
:1003C000CDE90042001C41F5801132462B4600F079
:1003D000ABF903B0BDE8F08F40462146F9E7001BBA
:1003E00061EB0201001C41F5801300185B412018ED
:1003F000A2F5001747EB030140EAD570B6196D412D
:1004000011E06D084FEA360645EAC0754FEA07521B
:10041000001B61EB0201001C41F5801149084FEA05
:1004200030000019514132462B4603B0BDE8F04F71
:1004300000F06BB90098012240000023D0EB0202CB
:1004400063EBE073009821464FEAE074B8EB0000DC
:1004500061EB0401E9E783F000435BE781F00041D1
:1004600058E72DE9FE4F81EA030404F0004421F02F
:10047000004100944FF0000B23F0004350EA0104C8
:100480005ED052EA03045BD0C3F30A54C1F30A55A9
:100490002C44A4F2F3340194A0FB0254C1F31301E1
:1004A00041F48011C3F3130343F4801301FB0244AE
:1004B00000FB034E840A970A44EA815447EA8357B3
:1004C000A4FB076802958D0A05FB07854FEA932C6C
:1004D00004FB0C542705029D4FEA065847EA1637DD
:1004E000B5EB08056EEB070C870E920E47EA8117F5
:1004F00042EA8312A7FB0201B6EB0B0164EB000496
:100500002B0D43EA0C335E1844EB1C50DA4651467F
:10051000E7FB0201C5F313044FEA0B3343EA14531C
:100520004FEA0432019C43EA0603A4F10C0402944E
:10053000009CCDE900B400F0F7F803B0BDE8F08FFF
:1005400000200146F9E72DE9F04D81EA030404F0AB
:10055000004B21F0004514464FF0000A23F0004103
:1005600050EA050220D054EA01021DD0C5F30A5713
:100570000246C5F31303C1F31300C1F30A5640F456
:10058000801543F48013A7EB0608101BD64608F22B
:10059000FD3873EB050002D308F1010801E0921861
:1005A0005B41B8F1000F03DA00200146BDE8F08D91
:1005B00000204FF48011064684460EE0171B73EBB3
:1005C000050705D3121B63EB050306434CEA010C38
:1005D00049084FEA300092185B4150EA0107EDD11B
:1005E00052EA030012D082EA040083EA05010843BC
:1005F00005D0101BAB4106D20122002306E00022E9
:100600004FF0004302E06FF0010253101AEB0600B6
:100610004CEB085110EB0A0041EB0B01BDE8F04D2B
:1006200000F073B8C1F30A52C1F3130140F2FF3373
:1006300041F480119A4202DA00200146704740F2EC
:1006400033439A42A2F2334202DC524200F03BB8FA
:1006500000F02AB830B5041E71F1000404DB4FF03D
:100660000044404264EB0101141E73F1000405DBF9
:100670001C464FF00043524263EB0403994208BF0B
:10068000904230BD064C074D06E0E06840F00103A3
:1006900094E8070098471034AC42F6D3FFF778FD92
:1006A000E823000808240008202A04DB203A00FA86
:1006B00002F1002070479140C2F1200320FA03F3B9
:1006C000194390407047202A04DB203A21FA02F0B7
:1006D0000021704721FA02F3D040C2F1200291407C
:1006E000084319467047202A06DBCB17203A41FA07
:1006F00002F043EAE07306E041FA02F3D040C2F1AF
:100700002002914008431946704710B5141E73F13A
:10071000000408DA401C41F1000192185B411A43C1
:1007200001D120F0010010BD2DE9F04D92469B460D
:1007300011B1B1FA81F202E0B0FA80F220329046B3
:10074000FFF7B2FF04460F4640EA0A0041EA0B01F8
:1007500053465A46084313D0114653EA010019D0B4
:10076000C8F140025046FFF7AEFF05460E46504620
:1007700059464246FFF798FF084305D0012004E0A0
:1007800020463946BDE8F08D0020054346EAE07674
:100790002C4337430A986305E40AA0EB08000022C3
:1007A000FD0A44EA47540A3002D500200146E9E731
:1007B000010510196941DDE9084500196941BDE8E5
:1007C000F04DA2E71CB50121402000F007FB80207E
:1007D000009001208DF8040000208DF80600022012
:1007E0008DF807008DF805006946044800F068F9A7
:1007F0008021024800F0D8F91CBD0000001802401A
:1008000000BFFEE70748006840F0807005490860B7
:100810000020054948600846006840F00100086073
:1008200070470000FCED00E0001000E00148406867
:1008300070470000001000E031B50024FFF7E2FF30
:10084000104800681049B0FBF1F0009900FB01F579
:1008500000BFFFF7EBFF034611E0FFF7E7FF02469B
:100860009A420CD09A4202D9D01A044403E0C3F150
:10087000FF30104404441346AC4200D300E0ECE7E0
:1008800000BF38BD0000002040420F001CB5012110
:10089000042000F0A3FA4FF40050009001208DF8DE
:1008A000040000208DF8060001208DF807000220CA
:1008B0008DF805006946024800F002F91CBD0000F1
:1008C000000802401CB54FF40050009000208DF845
:1008D00004008DF8070002208DF8050069460248E3
:1008E00000F0EEF81CBD0000000802401CB54FF4FB
:1008F0000050009001208DF8040000208DF80600C3
:1009000001208DF8070002208DF805006946024895
:1009100000F0D6F81CBD0000000802401FB5012100
:10092000022000F06BFA44F61F60029042F2CF0002
:10093000ADF804000020ADF80C00ADF8060001A9E8
:100940000D4800F0E3FD012211460B4800F0A4FD24
:100950001D208DF8000000208DF801008DF80200A8
:1009600001208DF80300684600F0FAF901210248E1
:1009700000F02FFD1FBD00000004004008B50A482C
:1009800000F002FB01280AD10748C0780090064811
:1009900083784278017805A000F0C8FF02E012A039
:1009A00000F0C4FF08BD00002C0000200D0AB6C1F5
:1009B000C8A14448543131B3C9B9A6210D0A0D0A62
:1009C000CAAAB6C8CEAA25642E256420A3A552487B
:1009D00020A3ACCEC2B6C8CEAA2025642E2564A121
:1009E000E6200D0A0000000052656164204448546E
:1009F0003131204552524F52210D0A0070470000FC
:100A000000B587B00121084600F0E8F90121102067
:100A100000F004FA07220A211D4800F099F8072285
:100A200009211B4800F094F800208DF81A000120DD
:100A30008DF81B0002208DF818000002059002209E
:100A40008DF8190005A9124800F03AF802208DF837
:100A500018004002059005A90D4800F031F84FF448
:100A6000E13001900020ADF80800ADF80A00ADF8C3
:100A70000C00ADF810000C20ADF80E0001A90548DF
:100A800000F0E4FE0121034800F0C6FE07B000BDFF
:100A9000000002400010014001B5084900980860BC
:100AA0004FF0E020006940F001004FF0E0210861C4
:100AB00000BF024800680028FBD108BD34000020B8
:100AC000F0B50A4600210023002400BF3DE00125C7
:100AD00005FA01F3156805EA03049C4234D1056860
:100AE0004F000326BE40B543056015794E00B54062
:100AF0000668354305601579012D02D01579022D60
:100B000016D185684F000326BE40B54385605579F0
:100B10004E00B540866835438560456801268E40A5
:100B2000B5434560456896798E40B6B23543456019
:100B3000C5684F000326BE40B543C560D5794E0059
:100B4000B540C6683543C560491C1029BFD3F0BD08
:100B5000F0B5002300244D07ED0E02FA05F3CE1088
:100B600000F1200555F826504E07F70E0F26BE401F
:100B7000B543CF1000F1200646F82750CE1000F103
:100B8000200555F8265045EA0304CE1000F1200553
:100B900045F82640F0BD0246002013690B400BB11A
:100BA000012000E0002070474183704701837047B7
:100BB0001CB50121084600F011F94FF400500090D7
:100BC00001208DF8040000208DF806008DF8070044
:100BD00003208DF8050069460A48FFF771FF4FF4BE
:100BE0000040009000208DF804008DF806008DF87C
:100BF000070003208DF8050069460248FFF760FFF3
:100C00001CBD00000000024070B54FF4005129489F
:100C1000FFF7CCFF0A20FFF70FFE4FF400512548E5
:100C2000FFF7C2FF0024002500260AE0701C0646DC
:100C30002149884205D921A000F078FE4FF0FF300D
:100C400070BD4FF400411B48FFF7A5FF0028EDD011
:100C50001E4800F0CDFB044600260AE0701C064644
:100C60001549884205D915A000F060FE4FF0FF300D
:100C7000E6E74FF400410F48FFF78DFF0128EDD064
:100C8000124800F0B5FB0546A54205D9281BFFF721
:100C900097FA0F49086007E04FF6FF71091B4819E2
:100CA000FFF78EFA0A49086009480068FFF78DFAD5
:100CB000C6E700000000024040420F000D0A20CBB2
:100CC000C0CBC0CBC0200D0A0000000000080040CF
:100CD0002800002000B587B00121042000F08EF824
:100CE0004FF6FF700590154800681549B0FBF1F00C
:100CF000401E80B2ADF810000020ADF81800ADF82D
:100D0000120004A90F4800F001FC0820ADF804000F
:100D10000020ADF806000120ADF808000020ADF875
:100D20000A00ADF80C0001A9064800F07EFB012185
:100D3000044800F04EFB07B000BD0000000000209A
:100D400040420F000008004010B5FFF731FFFFF7E9
:100D5000C1FF10BD00BFFEE700BFFEE77047000007
:100D600070B5002100230F22C4781CB3174C2468EF
:100D700004F4E064C4F5E064C4F30721C1F10404A1
:100D8000E3B20A4144789C40E1B2847814402143A4
:100D90000C07210E0E4C05786155047804F01F05F0
:100DA0000124AC4005786D11AD0005F1E025C5F8D2
:100DB000004109E0047804F01F050124AC40054D12
:100DC0000678761145F8264070BD00000CED00E075
:100DD00000E400E080E100E07047000029B1064A2D
:100DE00012680243044B1A6004E0034A126882430B
:100DF000014B1A60704700003038024029B1064AA2
:100E000012680243044B1A6004E0034A12688243EA
:100E1000014B1A60704700004038024029B1064A71
:100E200012680243044B1A6004E0034A12688243CA
:100E3000014B1A607047000044380240F0B50021B1
:100E400000220024022500260223324F3F6807F0CB
:100E50000C0121B1042905D0082937D105E02E4F16
:100E6000076036E02D4F076033E02A4F3F1F3F6891
:100E7000C7F38056274F3F1F3F6807F03F036EB10F
:100E8000264FB7FBF3F7DFF88CC0ACF1040CDCF8AD
:100E900000C0CCF3881C07FB0CF40CE01E4FB7FB22
:100EA000F3F7DFF870C0ACF1040CDCF800C0CCF351
:100EB000881C07FB0CF4174F3F1F3F68C7F301471F
:100EC0007F1C7D00B4FBF5F7076002E0124F07605E
:100ED00000BF00BF0F4F3F6807F0F0010909104F36
:100EE0007A5C0768D74047600A4F3F6807F4E051D3
:100EF000890A0B4F7A5C4768D7408760054F3F6887
:100F000007F46041490B064F7A5C4768D740C760D9
:100F1000F0BD0000083802400024F40040787D0154
:100F20001400002070B50025002427E000BF4FF416
:100F300000511448FFF72FFE0028F8D02820FFF7B3
:100F40007BFC4FF400510F48FFF725FE01280ED11E
:100F500000BF4FF400510B48FFF71DFE0128F8D0E9
:100F6000C4F1070101208840C0B2054304E0C4F188
:100F70000701012088408543601CC4B2082CD5DBE2
:100F8000284670BD0008024070B50446FFF7AEFC6D
:100F90004FF400513148FFF707FE44F62060FFF799
:100FA0004BFC4FF400512D48FFF700FE1E20FFF7C9
:100FB00043FCFFF787FC4FF400512848FFF7EBFD97
:100FC000002849D1002509E0681C85B2B5F57A7F73
:100FD00001DD002070BD0A20FFF72EFC4FF4005108
:100FE0001E48FFF7D8FD0028EED0002509E0681C58
:100FF00085B2B5F57A7F01DD0020EBE70A20FFF727
:101000001BFC4FF400511548FFF7C5FD0128EED039
:10101000FFF788FF2070FFF785FF6070FFF782FF02
:10102000A070FFF77FFFE070FFF77CFF2071FFF7F4
:101030005DFC4FF400510948FFF7B8FD2078617856
:101040000844A1780844E17808442179884201D114
:101050000120BFE70020BDE70020BBE700080240F9
:10106000704700000CB500200190009034480068E3
:1010700040F480303249086000BF3148006800F415
:10108000003000900198401C0190009818B9019818
:10109000B0F5A04FF1D12A48006800F4003010B13B
:1010A0000120009001E0002000900098012846D126
:1010B00023484030006840F08050214940310860AA
:1010C0002048006840F440401E4908601C48083031
:1010D00000681B49083108600846006840F4004079
:1010E00008600846006840F4A05008601648091FD0
:1010F0000860081F006840F08070091F086000BF8A
:101100000F48006800F000700028F9D040F2057028
:101110000E4908600A480830006820F003000849BA
:10112000083108600846006840F00200086000BF0F
:1011300003480830006800F00C000828F8D10CBD06
:10114000003802400070004019544007003C024043
:1011500010B500F055FB10BD30B519480068194AAC
:10116000B0FBF2F1481EB0F1807F01D301201BE0FB
:10117000481E4FF0E022506150170F22002807DA76
:1011800013071D0E104B00F00F04241F1D5503E024
:1011900013071C0E0D4B1C5400BF00204FF0E02223
:1011A000906107201061002008B100BFFEE74FF0FA
:1011B000E020006920F001004FF0E021086130BD1F
:1011C0000000002040420F0018ED00E000E400E0C5
:1011D00010B51248006840F0010010490860002076
:1011E0000E49083108600D4800680D4908400B4958
:1011F00008600C48091D0860081F006820F4802062
:10120000091F0860002005490C310860FFF72AFF1C
:101210004FF000600449086010BD00000038024033
:10122000FFFFF6FE1030002408ED00E0F0B50C469C
:10123000154600210022068C4FF6FE773E400684BC
:10124000018B028C4FF60C7631407E1C06EA0316A9
:101250002E4331434FF6F576324044F001063243D7
:1012600001830284F0BDF0B50C4615460021002232
:101270000026078C4FF6EF7C07EA0C070784018BEA
:10128000028C4FF6FF7707EA041640F6FF47394015
:101290004FF6FF7707EA033739434FF6FF7707EA40
:1012A000052739434FF65F773A4046F010073A4337
:1012B00001830284F0BDF0B50C46154600210022E2
:1012C0000026078C4FF6FF6C07EA0C070784818B1A
:1012D000028C4FF6FF7707EA04264FF60C77394069
:1012E0004FF6FF7707EA03172F4339434FF2FF57B3
:1012F0003A4046F480773A4381830284F0BDF0B5EA
:101300000C461546002100220026078C4EF6FF7C75
:1013100007EA0C070784818B028C4FF6FF7707EAF8
:10132000043640F6FF4739404FF6FF7707EA0527B6
:1013300039434FF6FF7707EA0337394345F6FF771E
:101340003A4046F480573A4381830284F0BD00005E
:1013500070B50121144800F057F818B3134800780D
:10136000012802D1FFF70AFB18E010480078022894
:1013700014D1FFF749FC40003A21B0FBF1F42046BC
:10138000FEF71EFF0A49086008460068FEF731FFB5
:10139000044622460B4607A000F0C8FA0121024885
:1013A00000F014F870BD000000040040240000208C
:1013B000280000200D0A2064697374616E63652043
:1013C0003D3D20252E3266636D0D0A00CA43028220
:1013D000704721B1028842F00102028004E00288D5
:1013E0004FF6FE731A40028070470146486B704703
:1013F0000146486A704702460020138A0B400BB131
:10140000012000E00020704730B502460020002394
:101410000024158A05EA0103958905EA010413B140
:101420000CB1012000E0002030BD70B505460C462F
:10143000208850B92389A28861882846FFF7F6FEE4
:10144000E188284600F035F825E0208804280AD1F4
:101450002389A28861882846FFF705FFE18828468E
:1014600000F030F817E0208808280AD12389A288E4
:1014700061882846FFF71FFFE188284600F02FF813
:1014800009E02389A28861882846FFF738FFE188B0
:10149000284600F02DF870BD1AB183890B43838173
:1014A00002E083898B4383817047C1627047416248
:1014B0007047028B4FF6F3731A400283028B0A4384
:1014C00002837047028B4FF2FF331A400283028B74
:1014D0004FF6FF7303EA01231A4302837047828B9E
:1014E0004FF6F3731A408283828B0A4382837047DC
:1014F000828B4FF2FF331A408283828B4FF6FF7349
:1015000003EA01231A438283704700000022028805
:10151000184B98420ED0184B98420BD0B0F1804F28
:1015200008D0164B984205D0154B984202D0154B67
:10153000984204D14FF68F731A404B881A43124BCE
:10154000984207D0114B984204D04FF6FF431A40FF
:101550000B891A4302804B68C3620B880385054BD5
:10156000984202D0044B984201D18B7A0386012322
:1015700083827047000001400004014000040040E5
:1015800000080040000C0040001000400014004023
:1015900030B589B005460C4601210846FFF72EFC00
:1015A00001210846FFF71AFC012205211C48FFF71C
:1015B000CFFA2020079002208DF8200003208DF81C
:1015C000210000208DF822008DF8230007A914487F
:1015D000FFF776FA0595ADF810400020ADF8180039
:1015E000ADF8120004A94FF08040FFF78FFF0020F4
:1015F000ADF80400ADF806000120ADF808000020A9
:10160000ADF80A00ADF80C0001A94FF08040FFF7DB
:101610000CFF01218807FFF7DCFE09B030BD000098
:101620000000024070B506460024002505E000F0E9
:101630000BF80446AC4200DD2546301EA6F1010140
:10164000CEB2F4D1284670BD10B500F06FF80DE0B1
:101650004FF08040FFF7CCFE4FF60B61884205D972
:101660004FF08040FFF7C4FE80B210BD0221480752
:10167000FFF7C1FE0028EBD04FF08040FFF7B5FE2A
:1016800080B2F2E770B586B0002614214FF6FF70E5
:10169000FFF77EFF00240AE0FFF7D6FF01A921F83B
:1016A000140042F21070FFF7F7F9601CC4B20A2C64
:1016B000F2DB00241BE0601CC5B214E001A830F886
:1016C000140001A931F8151088420ADD01A830F88C
:1016D000146030F8150001A921F8140001A820F8C1
:1016E0001560681CC5B20A2DE8DB601CC4B2092C69
:1016F000E1DB0026022405E001A830F814000644CE
:10170000601CC4B2082CF7DB0620B6FBF0F00649DB
:10171000088008460088B0F5004F02DB012006B0C3
:1017200070BD0020FBE70000380000201CB5202021
:10173000009001208DF8040003208DF805000020A2
:101740008DF8060002208DF8070069461348FFF760
:10175000B7F920211148FFF727FA41F28830FFF747
:101760009BF903214FF08040FFF730FE00214FF03E
:101770008040FFF79CFE2020009002208DF804009E
:1017800003208DF8050000208DF806008DF8070075
:1017900069460248FFF794F91CBD000000000240B2
:1017A0002DE9F0410546002603271DB1062700203C
:1017B000114908703846FFF735FF04460F48008886
:1017C000323084420DDD0D48008800EB800040007F
:1017D000A04206DD0848007800B90126032006492A
:1017E00008700548007820B103480078401E02497F
:1017F00008703046BDE8F0813A0000203800002033
:101800000448006820B103480068401E0149086090
:10181000704700003400002021B1828942F4005258
:10182000828104E082894DF6FF731A4082817047FD
:1018300002460020B1F5007F00D100BF13880B40A5
:101840000BB1012000E00020704700002DE9FF47A8
:1018500005460E460024A14600BFA046B08900B14F
:1018600000BF2C8A24F44054F08804432C82AC89B5
:1018700041F20C608443B088318908437189084380
:101880000443AC81AC8A24F44074B0890443AC8234
:101890006846FFF7D3FA2048854202D01F488542A8
:1018A00002D1DDF80C9001E0DDF80890A88900F481
:1018B000004040B109EBC90000EB09103168490054
:1018C000B0FBF1F707E009EBC90000EB0910316844
:1018D0008900B0FBF1F76420B7FBF0F004012009A8
:1018E000642101FB1078A88900F4004040B1322047
:1018F00000EBC800B0FBF1F000F00700044308E083
:10190000322000EB08106421B0FBF1F000F00F0072
:1019100004432C81BDE8FF87001001400014014002
:10192000C1F308028280704700BFFEE70FB4054B89
:1019300010B503A9044A029800F0DAF810BC5DF86B
:1019400014FB0000A12200083C00002002E008C8AF
:10195000121F08C1002AFAD170477047002001E029
:1019600001C1121F002AFBD1704700002DE9FF5F63
:1019700082B00021DDE90430020DDDF840B0034300
:1019800018D044F61050A2F2FF32424315141198B9
:1019900001281FD0A5EB0B00401C5FEA000A4FF0A6
:1019A00000064E4FDFF83891B046504615D5CAF1C3
:1019B000000413E0119801244AA3012801D16FEA21
:1019C0000B010298119AC0E90031C0E9024206B049
:1019D000BDE8F09FCBF10000DFE704460021404A5C
:1019E000491842EB0450CDE9001012E0E00707D09F
:1019F00032463B4640464946FEF733FD804689461F
:101A000032463B4610461946FEF72BFD06460F466A
:101A10006410002CEAD1DDE90401DDE90023BAF10C
:101A2000000F06DAFEF71DFD42464B46FEF719FD94
:101A300005E0FEF788FD42464B46FEF784FD04466E
:101A40000E460022284BFEF705FE03D84FF0FF306C
:101A5000014607E00022254B20463146FEF75AFC9E
:101A6000FEF7E0FD102409E0002C0ADB0A22002327
:101A7000FEF7E8FB039B30321A55641E50EA010260
:101A8000F2D1641C039AC4F111031444119A012A7F
:101A900003D0012208430DD10AE0084304D00020FE
:101AA0004FF0110B119072E7A3EB0B056D1E0DE0CB
:101AB0005B4504DD4FF0000205F1010504E003DAA7
:101AC0004FF00002A5F10105002AECD0029811990F
:101AD000C0E90231C0E9004579E700000000144088
:101AE0000000F03F300000000000F0430000E03F45
:101AF0002DE9FF4F95B09B468946064600250FE22B
:101B0000252877D100242746F84A0121059400E0D2
:101B1000044316F8013F203B01FA03F01042F7D1CD
:101B200030782A2811D06FF02F033078A0F13002DE
:101B3000092A16D8059A44F0020402EB820203EB4C
:101B400042021044761C0590EFE759F8042B0592E9
:101B5000002A03DA504244F40054059044F0020491
:101B6000761C30782E2816D116F8010F44F00404A4
:101B70002A280DD06FF02F023078A0F13003092B06
:101B800009D807EB870302EB4303C718761CF3E77A
:101B900059F8047B761C30786C280FD006DC4C2872
:101BA00017D068280DD06A2814D104E0742810D00A
:101BB0007A280FD10DE044F400140AE044F48014B4
:101BC00001E044F440147278824202D104F580149A
:101BD000761C761C307866280BD013DC582877D01A
:101BE00009DC002875D04528F6D04628F4D04728CF
:101BF0001AD19DE118E0632835D0642879D0652892
:101C000012D195E1702873D008DC6728F1D06928DB
:101C10006FD06E280DD06F2806D1B5E073282CD078
:101C2000752875D0782874D05A46179990476D1C3E
:101C300075E1C4F30250022809D003280DD0D9F869
:101C4000001004280DD00D6009F1040967E1D9F8EE
:101C50000010EA17C1E90052F6E7D9F800100D802C
:101C6000F2E70D70F0E719F8041B8DF80010002062
:101C70008DF80100EA46012003E059F804AB4FF06B
:101C8000FF3061074FF0000102D40DE008F10101BF
:101C90008846B9420FDA8045F8DB1AF808100029A7
:101CA000F4D108E008F1010188468142FADB1AF814
:101CB00008100029F6D105985B46A0EB08072146DD
:101CC0003846179A00F094FA284400EB080507E01C
:101CD0004DE029E10DE01AF8010B5A46179990479B
:101CE000B8F10108F7D25B4621463846179A13E14E
:101CF00042E00A220092C4F302524FF0000A022A84
:101D000008D059F804CB032A4FEAEC710AD00DE051
:101D100029E02AE009F1070121F00702F2E802C1F7
:101D2000914609E00FFA8CFC4FEAEC71042A03D1CA
:101D30004FFA8CFC4FEAEC71002907DA0A460021C1
:101D4000DCF1000C61EB02012D2202E0220504D53A
:101D50002B228DF80420012203E0E20701D020228B
:101D6000F7E7904659E00A2102E010220DE0102129
:101D70004FF0000A00910BE010224FF0000A44F0EF
:101D800004040827009203E008224FF0000A0092A2
:101D9000C4F30252022A05D059F804CB0021032AC9
:101DA00008D009E009F1070121F00702F2E802C1B9
:101DB000914605E01FFA8CFC042A01D10CF0FF0CBF
:101DC0004FF00008220728D5702806D0009B83F02A
:101DD000100353EA0A0305D00EE040228DF80420D8
:101DE000012208E05CEA010206D030228DF80420CE
:101DF0008DF8050002229046009B83F0080353EA09
:101E00000A030AD15CEA010201D1620705D530223A
:101E10008DF804204FF001087F1E582804D034A00C
:101E200003900EA802900DE036A0F9E753466046F5
:101E3000009AFEF707FA84460398825C0298401ED7
:101E4000029002705CEA0100F0D1029806A9081A1B
:101E500000F1200A600702D524F4803400E0012755
:101E6000574502DDA7EB0A0000E0002000EB0A0165
:101E7000009005984144401A0590E00306D45B4663
:101E80002146179A059800F0B3F90544002706E0AB
:101E900001A85A46C05D179990476D1C7F1C4745A5
:101EA000F6DBE0030CD55B462146179A059800F057
:101EB0009FF9054404E030205A46179990476D1C5D
:101EC0000099481E00900029F5DC08E0029802996C
:101ED0005A460078491C0291179990476D1CBAF137
:101EE0000001AAF1010AF1DC65E100000928010006
:101EF0003031323334353637383961626364656680
:101F00000000000030313233343536373839414241
:101F1000434445460000000000F058F90544761C93
:101F2000307800287FF4ECAD19B02846BDE8F08F7A
:101F3000620700D4062709F1070222F0070CFCE82B
:101F40000223E14603F000485FEA080C02D00FF2DA
:101F5000702C0DE05FEA045C02D50FF2682C07E0FC
:101F60005FEAC47C02D00FF2602C01E0AFF2700C8B
:101F70004FF0FF3823F00043CDF850C065280CD057
:101F800006DC452809D046281DD047283DD13DE034
:101F9000662818D067287ED138E00021112F01DB98
:101FA000112000E0781CCDE9000106A90EA8FFF77A
:101FB000DDFCDDE90F010E9A03910021009207F18B
:101FC000010A04914DE04FF000400097CDE9011067
:101FD00006A90EA8FFF7CAFCDDE90F0203920E9BCB
:101FE00011990022DDF80CA00093049211B9791C1C
:101FF00000EB010AB7EB0A0004D4C0F1FF3007F18F
:10200000010A0490AAEB0700019044E0012F00DAD6
:1020100001270021112F01DD112000E03846CDE914
:10202000000106A90EA8FFF7A1FCDDE90F010E9A39
:102030000391002104910092BA4621070CD4039920
:10204000514500DA8A46BAF1010F05DD009AAAF17E
:102050000101515C302908D0B84202DA10F1040FB6
:1020600006DA0121CDE9011015E0AAF10101E9E745
:10207000002805DC049901440491AAEB000102E068
:10208000411C514500DD8A460499401A401C0190CC
:102090004FF000400290200704D40198504501DB26
:1020A000CDF8048000208DF84F0002980DF14F0705
:1020B000B0F1004F25D02B200E9002984FF002086F
:1020C00000280CDA404202902D200E9007E00A21F1
:1020D0000298FEF7A1F83031029007F8011DB8F11F
:1020E0000001A8F10108F2DC02980028EFD1791E66
:1020F0000E980870307800F0200040F0450007F896
:10210000020D12A8C01B00F107081498007800B156
:10211000012000EB0A01019801EBE07105984144B0
:10212000401A401E0590E00306D45B462146179AEC
:10213000059800F05DF805441498007818B15A46E7
:10214000179990476D1CE00324D55B462146179AEA
:10215000059800F04DF805441CE00498002807DBC2
:10216000DDE90301884203DD0098405C179901E036
:10217000179930205A469047049805F10105401CF4
:1021800004900198401E019004D12E205A461799C0
:1021900090476D1CBAF10001AAF1010ADDDC05E0EF
:1021A00017F8010B5A46179990476D1CB8F10001BA
:1021B000A8F10108F4DC5B462146179A0598ABE6C6
:1021C0002D0000002B000000200000002DE9F04150
:1021D000044600251E461746880404D405E0394607
:1021E0002020B0476D1C641EF9D52846BDE8F0815B
:1021F0002DE9F041044600251E469046C80301D54E
:10220000302700E02027880404D505E04146384601
:10221000B0476D1C641EF9D52846BDE8F08100006A
:1022200010B51C480078D0B1012802D002282ED168
:102230000AE08020184908801848FEF72DFC80200D
:102240001549891C088023E0802013490880134821
:10225000FEF722FC80201049891C088018E08020AD
:102260000D4908800D48FEF717FC80200A49891C9B
:1022700008800A48FEF710FC8020074908800748BC
:10228000FEF70AFC80200449891C088000E000BF9A
:1022900000BF10BD2400002018180240A0860100D5
:1022A00070B504460D46E1B20548FFF739FB00BFA3
:1022B00080210348FFF7BCFA0028F9D0204670BD02
:1022C00000100140FEF79CFBFEF746FFFEF7DEFA2A
:1022D000FFF7D8F9FEF776FAFEF736FD25A0FFF7EF
:1022E00025FB45E00020FFF75BFA002840D02D4891
:1022F000007870B92CA0FFF719FB01212F48FFF7D8
:1023000068F8012027490870FFF78AFFFEF706FBEF
:102310002EE02448007801281AD1022021490870B3
:1023200027A0FFF703FB40F257212448FFF7BDF831
:1023300001212248FFF74AF801212048FFF749F818
:10234000012211461D48FFF7A7F8FFF769FF0FE0CC
:102350001448007802280BD100211848FFF739F8FB
:102360001DA0FFF7E3FA00200E490870FFF758FFA1
:10237000B8E700000D0A2A2A2AD2B0BBF046343052
:1023800037BFAAB7A2B0E520646874313120CEC24D
:10239000CAAAB6C8B4ABB8D0C6F7CAB5D1E92A2A1A
:1023A0002A0D0A00240000200D0A2A2A2ABFAAC6E4
:1023B000F444485431312A2A2A0D0A00000400400E
:1023C0000D0A2A2A2ABFAAC6F448435F5352303462
:1023D0002A2A2A0D0A0000000D0A2A2A2AB9D8B191
:1023E000D52A2A2A0D0A000008240008000000202F
:1023F000400000004C19000848240008400000205C
:10240000000400005C190008007A030A00000000C4
:102410000000000001020304060708090000000094
:10242000010203040102030406070809000000007A
:10243000000000000000000000000000000000009C
:08244000000000000000000094
:040000050800018965
:00000001FF
