:020000040800F2
:10000000000400209D010008890200088502000804
:1000100087020008E501000825060008000000002E
:10002000000000000000000000000000C502000801
:10003000E7010008000000008B02000881030008AF
:10004000B7010008B7010008B7010008B7010008B0
:10005000B7010008B7010008B7010008B7010008A0
:10006000B7010008B7010008B7010008B701000890
:10007000B7010008B7010008B7010008B701000880
:10008000B7010008B7010008B7010008B701000870
:10009000B7010008B7010008B7010008B701000860
:1000A000B7010008B7010008B7010008B701000850
:1000B000B7010008B7010008B7010008B701000840
:1000C000B7010008B7010008B7010008B701000830
:1000D000B7010008B7010008B7010008B701000820
:1000E000B7010008B7010008B7010008B701000810
:1000F000B7010008B7010008B7010008B701000800
:10010000B7010008B7010008B7010008B7010008EF
:10011000B7010008B7010008B7010008B7010008DF
:10012000B7010008B7010008B7010008B7010008CF
:10013000B7010008B7010008B7010008B7010008BF
:10014000B7010008B7010008B7010008B7010008AF
:10015000B7010008B7010008B7010008B70100089F
:10016000B7010008B7010008B7010008B70100088F
:10017000B7010008B7010008B7010008B70100087F
:10018000B7010008B7010008DFF80CD000F018F83C
:10019000004800475D06000800040020064880472C
:1001A00006480047FEE7FEE7FEE7FEE7FEE7FEE75C
:1001B000FEE7FEE7FEE7FEE7850300088901000889
:1001C000064C074D06E0E06840F0010394E80700A4
:1001D00098471034AC42F6D3FFF7DAFF2407000843
:1001E00034070008FEE770472DE9F041002201279F
:1001F0004FF0030C07FA02F50B682B40AB422CD1F1
:10020000066853000CFA03F4A64306600E79D0F892
:1002100000809E4046EA080606600E79012E01D055
:10022000022E12D18668A64386604E79D0F80880E7
:100230009E4046EA080686604668AE4346604568CA
:100240008E799640B6B235434560C568A543C56012
:10025000CC799C40C3681C43C460521C102AC9D38B
:10026000BDE8F08110B54B07DB0E9A40C90800EBE2
:100270008100016A0F249C40A1430162016A11437D
:10028000016210BDFEE7FEE770477047054A00298E
:1002900003D01168014311607047116881431160F8
:1002A0007047000030380240054A002903D0116829
:1002B000014311607047116881431160704700006D
:1002C00040380240704700000CB5002201920092B5
:1002D0002749086840F4803008604FF4A04308685C
:1002E00000F4003000900198401C0190009810B973
:1002F00001989842F3D10868800302D5012000904C
:1003000000E000920098012831D11948403002687D
:1003100042F0805202601748026842F44042026094
:100320001348083002680260026842F4004202602A
:10033000026842F4A0520260021F0F4B13600A6869
:1003400042F080720A600A689201FCD50B4A40F2C2
:1003500005711160016821F003010160016841F03D
:10036000020101600168C1F381010229FAD10CBDCB
:10037000003802400070004019544007003C024021
:100380007047000010B51248016841F47001016027
:100390001048016841F0010101600E4A0021083255
:1003A000116002680C4B1A400260031D0B4A1A6070
:1003B000026822F48022026006480C300160FFF7D8
:1003C00083FF03494FF000608039086010BD0000D2
:1003D00088ED00E000380240FFFFF6FE10300024F8
:1003E000002904D0018841F0010101807047018893
:1003F00021F001010180704730B5028C22F001022A
:100400000284058C8388028B22F0700222F00302A2
:100410000C88144325F002028D8915434A882A432B
:100420000D4DA84202D00D4DA8420FD122F0080573
:10043000CA892A4322F004058A882A4323F4807358
:1004400023F400730D8A1D434B8A2B43838004835E
:1004500089684163028430BD00000140000401400E
:10046000028B22F008020A430283704770B5028CA7
:1004700022F010020284028C8388048B24F4E0446E
:1004800024F440760D884FF6FF7404EA05253543C1
:1004900022F020028E8904EA061616434A8804EAEE
:1004A00002123243114EB04202D0114EB04217D167
:1004B00022F08002CE8904EA0616164326F0400692
:1004C0008A8804EA0212324323F4806323F400632F
:1004D0000E8A04EA86061E434B8A04EA83033343EA
:1004E0008380058389688163028470BD00000140B8
:1004F0000004014030B589B001210846FFF7D4FE61
:10050000C720079042F2CF00ADF818000024ADF8E4
:100510002040ADF81A404FF0804506A9284600F06B
:100520001BF86021ADF804100121ADF8061004217C
:100530000391ADF8104001A92846FFF75DFF08219F
:100540002846FFF78DFF01212846FFF749FF09B034
:1005500030BD41627047000030B50288164C174D1F
:10056000A0420DD0A8420BD0B0F1804F08D0144B60
:10057000984205D0134B984202D0134B984203D1B6
:1005800022F070034A881A43104B984206D0104B51
:10059000984203D022F440730A891A4302804A68C1
:1005A000C2620A880285A04201D0A84201D1897A9C
:1005B00001860121818230BD00000140000401401C
:1005C0000004004000080040000C00400010004003
:1005D0000014004010B500F005F8BDE81040FFF72A
:1005E00089BF00001CB501210846FFF74FFE0C4CE7
:1005F000012205212046FFF735FE2021009102212E
:100600008DF8041000218DF806108DF807100321D5
:100610008DF8051069462046FFF7E6FD1CBD000079
:1006200000000240FEE702E008C8121F08C1002ACD
:10063000FAD170477047002001E001C1121F002A63
:10064000FBD17047002242F2283304E00021491C0C
:100650009942FCD3521C8242F8D37047FFF7BAFF8D
:100660004FF0804540F6FF740521284600F00CF855
:100670002046FFF7E7FF1921284600F005F820463D
:10068000FFF7E0FFF0E7000030B585B004460D4607
:1006900000212046FFF75DFF6020ADF8000001203B
:1006A000ADF8020002950020ADF80C001848844215
:1006B00005D169462046FFF79FFE05B030BDB4F175
:1006C000804F07D01348844209D169462046FFF77E
:1006D000CDFEF2E769462046FFF78EFEEDE70E48B5
:1006E000844204D169462046FFF786FEE5E70B48C1
:1006F000844204D169462046FFF77EFEDDE70848C4
:100700008442DAD169462046FFF776FED5E700003D
:10071000000001400004004000080040000C0040C0
:10072000000401403407000800000020000400001D
:040730003606000881
:040000050800018965
:00000001FF
